{
  "_format": "hh-sol-artifact-1",
  "contractName": "Token",
  "sourceName": "contracts/Token.sol",
  "abi": [
    {
      "inputs": [],
      "stateMutability": "nonpayable",
      "type": "constructor"
    },
    {
      "anonymous": false,
      "inputs": [
        {
          "indexed": false,
          "internalType": "uint256",
          "name": "id",
          "type": "uint256"
        },
        {
          "indexed": false,
          "internalType": "string",
          "name": "category",
          "type": "string"
        },
        {
          "indexed": false,
          "internalType": "string",
          "name": "location",
          "type": "string"
        },
        {
          "indexed": false,
          "internalType": "uint256",
          "name": "area",
          "type": "uint256"
        },
        {
          "indexed": true,
          "internalType": "address",
          "name": "owner",
          "type": "address"
        }
      ],
      "name": "PropertyCreated",
      "type": "event"
    },
    {
      "anonymous": false,
      "inputs": [
        {
          "indexed": false,
          "internalType": "uint256",
          "name": "id",
          "type": "uint256"
        },
        {
          "indexed": true,
          "internalType": "address",
          "name": "previousOwner",
          "type": "address"
        },
        {
          "indexed": true,
          "internalType": "address",
          "name": "newOwner",
          "type": "address"
        }
      ],
      "name": "PropertySold",
      "type": "event"
    },
    {
      "inputs": [],
      "name": "admin",
      "outputs": [
        {
          "internalType": "address",
          "name": "",
          "type": "address"
        }
      ],
      "stateMutability": "view",
      "type": "function"
    },
    {
      "inputs": [
        {
          "internalType": "string",
          "name": "category",
          "type": "string"
        },
        {
          "internalType": "string",
          "name": "location",
          "type": "string"
        },
        {
          "internalType": "uint256",
          "name": "area",
          "type": "uint256"
        },
        {
          "internalType": "address",
          "name": "owner",
          "type": "address"
        }
      ],
      "name": "createProperty",
      "outputs": [],
      "stateMutability": "nonpayable",
      "type": "function"
    },
    {
      "inputs": [],
      "name": "getDeployedContracts",
      "outputs": [
        {
          "internalType": "uint256[]",
          "name": "",
          "type": "uint256[]"
        },
        {
          "internalType": "string[]",
          "name": "",
          "type": "string[]"
        },
        {
          "internalType": "string[]",
          "name": "",
          "type": "string[]"
        },
        {
          "internalType": "uint256[]",
          "name": "",
          "type": "uint256[]"
        },
        {
          "internalType": "address[]",
          "name": "",
          "type": "address[]"
        }
      ],
      "stateMutability": "view",
      "type": "function"
    },
    {
      "inputs": [],
      "name": "nextPropertyId",
      "outputs": [
        {
          "internalType": "uint256",
          "name": "",
          "type": "uint256"
        }
      ],
      "stateMutability": "view",
      "type": "function"
    },
    {
      "inputs": [
        {
          "internalType": "uint256",
          "name": "",
          "type": "uint256"
        }
      ],
      "name": "properties",
      "outputs": [
        {
          "internalType": "contract Property",
          "name": "",
          "type": "address"
        }
      ],
      "stateMutability": "view",
      "type": "function"
    },
    {
      "inputs": [
        {
          "internalType": "uint256",
          "name": "id",
          "type": "uint256"
        },
        {
          "internalType": "address",
          "name": "newOwner",
          "type": "address"
        }
      ],
      "name": "sellProperty",
      "outputs": [],
      "stateMutability": "nonpayable",
      "type": "function"
    }
  ],
  "bytecode": "0x6080604052348015600f57600080fd5b5033600260006101000a81548173ffffffffffffffffffffffffffffffffffffffff021916908373ffffffffffffffffffffffffffffffffffffffff160217905550621939fd60018190555061225a8061006a6000396000f3fe608060405234801561001057600080fd5b50600436106100625760003560e01c8063346a16c41461006757806339500f34146100835780639e23b077146100a1578063aa9a068f146100bd578063f7b10808146100df578063f851a4401461010f575b600080fd5b610081600480360381019061007c919061097f565b61012d565b005b61008b61036b565b60405161009891906109ce565b60405180910390f35b6100bb60048036038101906100b69190610b2f565b610371565b005b6100c561051d565b6040516100d6959493929190610e8b565b60405180910390f35b6100f960048036038101906100f49190610f01565b610865565b6040516101069190610f8d565b60405180910390f35b6101176108a4565b6040516101249190610fb7565b60405180910390f35b60005b60008054905081101561032b576000806000838154811061015457610153610fd2565b5b9060005260206000200160009054906101000a900473ffffffffffffffffffffffffffffffffffffffff1673ffffffffffffffffffffffffffffffffffffffff16631d7450ac6040518163ffffffff1660e01b8152600401600060405180830381865afa1580156101c9573d6000803e3d6000fd5b505050506040513d6000823e3d601f19601f820116820180604052508101906101f2919061109b565b9450505050915084820361031c5760008190506000848154811061021957610218610fd2565b5b9060005260206000200160009054906101000a900473ffffffffffffffffffffffffffffffffffffffff1673ffffffffffffffffffffffffffffffffffffffff1663a6f9dae1866040518263ffffffff1660e01b815260040161027c9190610fb7565b600060405180830381600087803b15801561029657600080fd5b505af11580156102aa573d6000803e3d6000fd5b505050508473ffffffffffffffffffffffffffffffffffffffff168173ffffffffffffffffffffffffffffffffffffffff167f80d70e2f1a3ad68b38c069f4d530fc790f30cb753a1be3c63688721b707f242e8860405161030b91906109ce565b60405180910390a350505050610367565b50508080600101915050610130565b506040517f08c379a000000000000000000000000000000000000000000000000000000000815260040161035e906111ab565b60405180910390fd5b5050565b60015481565b600260009054906101000a900473ffffffffffffffffffffffffffffffffffffffff1673ffffffffffffffffffffffffffffffffffffffff163373ffffffffffffffffffffffffffffffffffffffff1614610401576040517f08c379a00000000000000000000000000000000000000000000000000000000081526004016103f89061123d565b60405180910390fd5b600060015485858585604051610416906108ca565b610424959493929190611296565b604051809103906000f080158015610440573d6000803e3d6000fd5b5090506000819080600181540180825580915050600190039060005260206000200160009091909190916101000a81548173ffffffffffffffffffffffffffffffffffffffff021916908373ffffffffffffffffffffffffffffffffffffffff1602179055508173ffffffffffffffffffffffffffffffffffffffff167f7c2386ddb9cf4c20a2495b0c65f9ecc27d38c5af2b88587642852b689c64ebc56001548787876040516104f494939291906112f7565b60405180910390a2600d6001600082825461050f9190611379565b925050819055505050505050565b606080606080606060008080549050905060008167ffffffffffffffff81111561054a57610549610a04565b5b6040519080825280602002602001820160405280156105785781602001602082028036833780820191505090505b50905060008267ffffffffffffffff81111561059757610596610a04565b5b6040519080825280602002602001820160405280156105ca57816020015b60608152602001906001900390816105b55790505b50905060008367ffffffffffffffff8111156105e9576105e8610a04565b5b60405190808252806020026020018201604052801561061c57816020015b60608152602001906001900390816106075790505b50905060008467ffffffffffffffff81111561063b5761063a610a04565b5b6040519080825280602002602001820160405280156106695781602001602082028036833780820191505090505b50905060008567ffffffffffffffff81111561068857610687610a04565b5b6040519080825280602002602001820160405280156106b65781602001602082028036833780820191505090505b50905060005b8681101561084857600081815481106106d8576106d7610fd2565b5b9060005260206000200160009054906101000a900473ffffffffffffffffffffffffffffffffffffffff1673ffffffffffffffffffffffffffffffffffffffff16631d7450ac6040518163ffffffff1660e01b8152600401600060405180830381865afa15801561074d573d6000803e3d6000fd5b505050506040513d6000823e3d601f19601f82011682018060405250810190610776919061109b565b8a868151811061078957610788610fd2565b5b602002602001018a87815181106107a3576107a2610fd2565b5b602002602001018a88815181106107bd576107bc610fd2565b5b602002602001018a89815181106107d7576107d6610fd2565b5b602002602001018a8a815181106107f1576107f0610fd2565b5b602002602001018573ffffffffffffffffffffffffffffffffffffffff1673ffffffffffffffffffffffffffffffffffffffff168152508581525085905285905285815250505050505080806001019150506106bc565b5084848484849a509a509a509a509a505050505050509091929394565b6000818154811061087557600080fd5b906000526020600020016000915054906101000a900473ffffffffffffffffffffffffffffffffffffffff1681565b600260009054906101000a900473ffffffffffffffffffffffffffffffffffffffff1681565b610e77806113ae83390190565b6000604051905090565b600080fd5b600080fd5b6000819050919050565b6108fe816108eb565b811461090957600080fd5b50565b60008135905061091b816108f5565b92915050565b600073ffffffffffffffffffffffffffffffffffffffff82169050919050565b600061094c82610921565b9050919050565b61095c81610941565b811461096757600080fd5b50565b60008135905061097981610953565b92915050565b60008060408385031215610996576109956108e1565b5b60006109a48582860161090c565b92505060206109b58582860161096a565b9150509250929050565b6109c8816108eb565b82525050565b60006020820190506109e360008301846109bf565b92915050565b600080fd5b600080fd5b6000601f19601f8301169050919050565b7f4e487b7100000000000000000000000000000000000000000000000000000000600052604160045260246000fd5b610a3c826109f3565b810181811067ffffffffffffffff82111715610a5b57610a5a610a04565b5b80604052505050565b6000610a6e6108d7565b9050610a7a8282610a33565b919050565b600067ffffffffffffffff821115610a9a57610a99610a04565b5b610aa3826109f3565b9050602081019050919050565b82818337600083830152505050565b6000610ad2610acd84610a7f565b610a64565b905082815260208101848484011115610aee57610aed6109ee565b5b610af9848285610ab0565b509392505050565b600082601f830112610b1657610b156109e9565b5b8135610b26848260208601610abf565b91505092915050565b60008060008060808587031215610b4957610b486108e1565b5b600085013567ffffffffffffffff811115610b6757610b666108e6565b5b610b7387828801610b01565b945050602085013567ffffffffffffffff811115610b9457610b936108e6565b5b610ba087828801610b01565b9350506040610bb18782880161090c565b9250506060610bc28782880161096a565b91505092959194509250565b600081519050919050565b600082825260208201905092915050565b6000819050602082019050919050565b610c03816108eb565b82525050565b6000610c158383610bfa565b60208301905092915050565b6000602082019050919050565b6000610c3982610bce565b610c438185610bd9565b9350610c4e83610bea565b8060005b83811015610c7f578151610c668882610c09565b9750610c7183610c21565b925050600181019050610c52565b5085935050505092915050565b600081519050919050565b600082825260208201905092915050565b6000819050602082019050919050565b600081519050919050565b600082825260208201905092915050565b60005b83811015610cf2578082015181840152602081019050610cd7565b60008484015250505050565b6000610d0982610cb8565b610d138185610cc3565b9350610d23818560208601610cd4565b610d2c816109f3565b840191505092915050565b6000610d438383610cfe565b905092915050565b6000602082019050919050565b6000610d6382610c8c565b610d6d8185610c97565b935083602082028501610d7f85610ca8565b8060005b85811015610dbb5784840389528151610d9c8582610d37565b9450610da783610d4b565b925060208a01995050600181019050610d83565b50829750879550505050505092915050565b600081519050919050565b600082825260208201905092915050565b6000819050602082019050919050565b610e0281610941565b82525050565b6000610e148383610df9565b60208301905092915050565b6000602082019050919050565b6000610e3882610dcd565b610e428185610dd8565b9350610e4d83610de9565b8060005b83811015610e7e578151610e658882610e08565b9750610e7083610e20565b925050600181019050610e51565b5085935050505092915050565b600060a0820190508181036000830152610ea58188610c2e565b90508181036020830152610eb98187610d58565b90508181036040830152610ecd8186610d58565b90508181036060830152610ee18185610c2e565b90508181036080830152610ef58184610e2d565b90509695505050505050565b600060208284031215610f1757610f166108e1565b5b6000610f258482850161090c565b91505092915050565b6000819050919050565b6000610f53610f4e610f4984610921565b610f2e565b610921565b9050919050565b6000610f6582610f38565b9050919050565b6000610f7782610f5a565b9050919050565b610f8781610f6c565b82525050565b6000602082019050610fa26000830184610f7e565b92915050565b610fb181610941565b82525050565b6000602082019050610fcc6000830184610fa8565b92915050565b7f4e487b7100000000000000000000000000000000000000000000000000000000600052603260045260246000fd5b600081519050611010816108f5565b92915050565b600061102961102484610a7f565b610a64565b905082815260208101848484011115611045576110446109ee565b5b611050848285610cd4565b509392505050565b600082601f83011261106d5761106c6109e9565b5b815161107d848260208601611016565b91505092915050565b60008151905061109581610953565b92915050565b600080600080600060a086880312156110b7576110b66108e1565b5b60006110c588828901611001565b955050602086015167ffffffffffffffff8111156110e6576110e56108e6565b5b6110f288828901611058565b945050604086015167ffffffffffffffff811115611113576111126108e6565b5b61111f88828901611058565b935050606061113088828901611001565b925050608061114188828901611086565b9150509295509295909350565b600082825260208201905092915050565b7f50726f7065727479206e6f7420666f756e640000000000000000000000000000600082015250565b600061119560128361114e565b91506111a08261115f565b602082019050919050565b600060208201905081810360008301526111c481611188565b9050919050565b7f4f6e6c79207468652061646d696e2063616e20706572666f726d20746869732060008201527f616374696f6e0000000000000000000000000000000000000000000000000000602082015250565b600061122760268361114e565b9150611232826111cb565b604082019050919050565b600060208201905081810360008301526112568161121a565b9050919050565b600061126882610cb8565b611272818561114e565b9350611282818560208601610cd4565b61128b816109f3565b840191505092915050565b600060a0820190506112ab60008301886109bf565b81810360208301526112bd818761125d565b905081810360408301526112d1818661125d565b90506112e060608301856109bf565b6112ed6080830184610fa8565b9695505050505050565b600060808201905061130c60008301876109bf565b818103602083015261131e818661125d565b90508181036040830152611332818561125d565b905061134160608301846109bf565b95945050505050565b7f4e487b7100000000000000000000000000000000000000000000000000000000600052601160045260246000fd5b6000611384826108eb565b915061138f836108eb565b92508282019050808211156113a7576113a661134a565b5b9291505056fe608060405234801561001057600080fd5b50604051610e77380380610e778339818101604052810190610032919061030d565b6040518060a001604052808681526020018581526020018481526020018381526020018273ffffffffffffffffffffffffffffffffffffffff168152506000808201518160000155602082015181600101908161008f91906105d7565b5060408201518160020190816100a591906105d7565b506060820151816003015560808201518160040160006101000a81548173ffffffffffffffffffffffffffffffffffffffff021916908373ffffffffffffffffffffffffffffffffffffffff16021790555090505050505050506106a9565b6000604051905090565b600080fd5b600080fd5b6000819050919050565b61012b81610118565b811461013657600080fd5b50565b60008151905061014881610122565b92915050565b600080fd5b600080fd5b6000601f19601f8301169050919050565b7f4e487b7100000000000000000000000000000000000000000000000000000000600052604160045260246000fd5b6101a182610158565b810181811067ffffffffffffffff821117156101c0576101bf610169565b5b80604052505050565b60006101d3610104565b90506101df8282610198565b919050565b600067ffffffffffffffff8211156101ff576101fe610169565b5b61020882610158565b9050602081019050919050565b60005b83811015610233578082015181840152602081019050610218565b60008484015250505050565b600061025261024d846101e4565b6101c9565b90508281526020810184848401111561026e5761026d610153565b5b610279848285610215565b509392505050565b600082601f8301126102965761029561014e565b5b81516102a684826020860161023f565b91505092915050565b600073ffffffffffffffffffffffffffffffffffffffff82169050919050565b60006102da826102af565b9050919050565b6102ea816102cf565b81146102f557600080fd5b50565b600081519050610307816102e1565b92915050565b600080600080600060a086880312156103295761032861010e565b5b600061033788828901610139565b955050602086015167ffffffffffffffff81111561035857610357610113565b5b61036488828901610281565b945050604086015167ffffffffffffffff81111561038557610384610113565b5b61039188828901610281565b93505060606103a288828901610139565b92505060806103b3888289016102f8565b9150509295509295909350565b600081519050919050565b7f4e487b7100000000000000000000000000000000000000000000000000000000600052602260045260246000fd5b6000600282049050600182168061041257607f821691505b602082108103610425576104246103cb565b5b50919050565b60008190508160005260206000209050919050565b60006020601f8301049050919050565b600082821b905092915050565b60006008830261048d7fffffffffffffffffffffffffffffffffffffffffffffffffffffffffffffffff82610450565b6104978683610450565b95508019841693508086168417925050509392505050565b6000819050919050565b60006104d46104cf6104ca84610118565b6104af565b610118565b9050919050565b6000819050919050565b6104ee836104b9565b6105026104fa826104db565b84845461045d565b825550505050565b600090565b61051761050a565b6105228184846104e5565b505050565b5b818110156105465761053b60008261050f565b600181019050610528565b5050565b601f82111561058b5761055c8161042b565b61056584610440565b81016020851015610574578190505b61058861058085610440565b830182610527565b50505b505050565b600082821c905092915050565b60006105ae60001984600802610590565b1980831691505092915050565b60006105c7838361059d565b9150826002028217905092915050565b6105e0826103c0565b67ffffffffffffffff8111156105f9576105f8610169565b5b61060382546103fa565b61060e82828561054a565b600060209050601f831160018114610641576000841561062f578287015190505b61063985826105bb565b8655506106a1565b601f19841661064f8661042b565b60005b8281101561067757848901518255600182019150602085019450602081019050610652565b868310156106945784890151610690601f89168261059d565b8355505b6001600288020188555050505b505050505050565b6107bf806106b86000396000f3fe608060405234801561001057600080fd5b50600436106100415760003560e01c806314d57e8b146100465780631d7450ac14610068578063a6f9dae11461008a575b600080fd5b61004e6100a6565b60405161005f9594939291906105bd565b60405180910390f35b6100706101fa565b6040516100819594939291906105bd565b60405180910390f35b6100a4600480360381019061009f919061064f565b610366565b005b60008060000154908060010180546100bd906106ab565b80601f01602080910402602001604051908101604052809291908181526020018280546100e9906106ab565b80156101365780601f1061010b57610100808354040283529160200191610136565b820191906000526020600020905b81548152906001019060200180831161011957829003601f168201915b50505050509080600201805461014b906106ab565b80601f0160208091040260200160405190810160405280929190818152602001828054610177906106ab565b80156101c45780601f10610199576101008083540402835291602001916101c4565b820191906000526020600020905b8154815290600101906020018083116101a757829003601f168201915b5050505050908060030154908060040160009054906101000a900473ffffffffffffffffffffffffffffffffffffffff16905085565b6000606080600080600080015460006001016000600201600060030154600060040160009054906101000a900473ffffffffffffffffffffffffffffffffffffffff16838054610249906106ab565b80601f0160208091040260200160405190810160405280929190818152602001828054610275906106ab565b80156102c25780601f10610297576101008083540402835291602001916102c2565b820191906000526020600020905b8154815290600101906020018083116102a557829003601f168201915b505050505093508280546102d5906106ab565b80601f0160208091040260200160405190810160405280929190818152602001828054610301906106ab565b801561034e5780601f106103235761010080835404028352916020019161034e565b820191906000526020600020905b81548152906001019060200180831161033157829003601f168201915b50505050509250945094509450945094509091929394565b600060040160009054906101000a900473ffffffffffffffffffffffffffffffffffffffff1673ffffffffffffffffffffffffffffffffffffffff163373ffffffffffffffffffffffffffffffffffffffff16146103f9576040517f08c379a00000000000000000000000000000000000000000000000000000000081526004016103f09061074e565b60405180910390fd5b60008060040160009054906101000a900473ffffffffffffffffffffffffffffffffffffffff16905081600060040160006101000a81548173ffffffffffffffffffffffffffffffffffffffff021916908373ffffffffffffffffffffffffffffffffffffffff1602179055508173ffffffffffffffffffffffffffffffffffffffff168173ffffffffffffffffffffffffffffffffffffffff167f079a159bc2c4ed6aaee92c293d83b6527a380c127aca07f41d3ab4c590957f5660008001546040516104c7919061076e565b60405180910390a35050565b6000819050919050565b6104e6816104d3565b82525050565b600081519050919050565b600082825260208201905092915050565b60005b8381101561052657808201518184015260208101905061050b565b60008484015250505050565b6000601f19601f8301169050919050565b600061054e826104ec565b61055881856104f7565b9350610568818560208601610508565b61057181610532565b840191505092915050565b600073ffffffffffffffffffffffffffffffffffffffff82169050919050565b60006105a78261057c565b9050919050565b6105b78161059c565b82525050565b600060a0820190506105d260008301886104dd565b81810360208301526105e48187610543565b905081810360408301526105f88186610543565b905061060760608301856104dd565b61061460808301846105ae565b9695505050505050565b600080fd5b61062c8161059c565b811461063757600080fd5b50565b60008135905061064981610623565b92915050565b6000602082840312156106655761066461061e565b5b60006106738482850161063a565b91505092915050565b7f4e487b7100000000000000000000000000000000000000000000000000000000600052602260045260246000fd5b600060028204905060018216806106c357607f821691505b6020821081036106d6576106d561067c565b5b50919050565b7f4f6e6c7920746865206f776e65722063616e206368616e676520746865206f7760008201527f6e65720000000000000000000000000000000000000000000000000000000000602082015250565b60006107386023836104f7565b9150610743826106dc565b604082019050919050565b600060208201905081810360008301526107678161072b565b9050919050565b600060208201905061078360008301846104dd565b9291505056fea2646970667358221220bd6a2b110b4c53f225eae45484e1d9bd8693c52f45b1dd836d34ea4c4decaa1e64736f6c634300081c0033a2646970667358221220e632202a207fe06db51dc02a97a1d19dfc0592c0b71859aa30dc405fab891a6564736f6c634300081c0033",
  "linkReferences": {},
  "deployedLinkReferences": {}
}