{
  "_format": "hh-sol-artifact-1",
  "contractName": "Token",
  "sourceName": "contracts/Token.sol",
  "abi": [
    {
      "inputs": [],
      "stateMutability": "nonpayable",
      "type": "constructor"
    },
    {
      "anonymous": false,
      "inputs": [
        {
          "indexed": false,
          "internalType": "uint256",
          "name": "id",
          "type": "uint256"
        },
        {
          "indexed": false,
          "internalType": "string",
          "name": "category",
          "type": "string"
        },
        {
          "indexed": false,
          "internalType": "string",
          "name": "location",
          "type": "string"
        },
        {
          "indexed": false,
          "internalType": "uint256",
          "name": "area",
          "type": "uint256"
        },
        {
          "indexed": true,
          "internalType": "address",
          "name": "owner",
          "type": "address"
        }
      ],
      "name": "PropertyCreated",
      "type": "event"
    },
    {
      "anonymous": false,
      "inputs": [
        {
          "indexed": false,
          "internalType": "uint256",
          "name": "id",
          "type": "uint256"
        },
        {
          "indexed": true,
          "internalType": "address",
          "name": "previousOwner",
          "type": "address"
        },
        {
          "indexed": true,
          "internalType": "address",
          "name": "newOwner",
          "type": "address"
        }
      ],
      "name": "PropertySold",
      "type": "event"
    },
    {
      "inputs": [],
      "name": "admin",
      "outputs": [
        {
          "internalType": "address",
          "name": "",
          "type": "address"
        }
      ],
      "stateMutability": "view",
      "type": "function"
    },
    {
      "inputs": [
        {
          "internalType": "address",
          "name": "",
          "type": "address"
        }
      ],
      "name": "admins",
      "outputs": [
        {
          "internalType": "bool",
          "name": "",
          "type": "bool"
        }
      ],
      "stateMutability": "view",
      "type": "function"
    },
    {
      "inputs": [
        {
          "internalType": "string",
          "name": "category",
          "type": "string"
        },
        {
          "internalType": "string",
          "name": "location",
          "type": "string"
        },
        {
          "internalType": "uint256",
          "name": "area",
          "type": "uint256"
        },
        {
          "internalType": "address",
          "name": "owner",
          "type": "address"
        }
      ],
      "name": "createProperty",
      "outputs": [],
      "stateMutability": "nonpayable",
      "type": "function"
    },
    {
      "inputs": [],
      "name": "getDeployedContracts",
      "outputs": [
        {
          "internalType": "uint256[]",
          "name": "",
          "type": "uint256[]"
        },
        {
          "internalType": "string[]",
          "name": "",
          "type": "string[]"
        },
        {
          "internalType": "string[]",
          "name": "",
          "type": "string[]"
        },
        {
          "internalType": "uint256[]",
          "name": "",
          "type": "uint256[]"
        },
        {
          "internalType": "address[]",
          "name": "",
          "type": "address[]"
        }
      ],
      "stateMutability": "view",
      "type": "function"
    },
    {
      "inputs": [
        {
          "internalType": "address",
          "name": "_address",
          "type": "address"
        }
      ],
      "name": "isAdmin",
      "outputs": [
        {
          "internalType": "bool",
          "name": "",
          "type": "bool"
        }
      ],
      "stateMutability": "view",
      "type": "function"
    },
    {
      "inputs": [],
      "name": "nextPropertyId",
      "outputs": [
        {
          "internalType": "uint256",
          "name": "",
          "type": "uint256"
        }
      ],
      "stateMutability": "view",
      "type": "function"
    },
    {
      "inputs": [
        {
          "internalType": "uint256",
          "name": "",
          "type": "uint256"
        }
      ],
      "name": "properties",
      "outputs": [
        {
          "internalType": "contract Property",
          "name": "",
          "type": "address"
        }
      ],
      "stateMutability": "view",
      "type": "function"
    },
    {
      "inputs": [
        {
          "internalType": "uint256",
          "name": "id",
          "type": "uint256"
        },
        {
          "internalType": "address",
          "name": "newOwner",
          "type": "address"
        }
      ],
      "name": "sellProperty",
      "outputs": [],
      "stateMutability": "nonpayable",
      "type": "function"
    }
  ],
  "bytecode": "0x608060405273f39fd6e51aad88f6f4ce6ab8827279cfffb92266600260006101000a81548173ffffffffffffffffffffffffffffffffffffffff021916908373ffffffffffffffffffffffffffffffffffffffff16021790555034801561006557600080fd5b506001600360003373ffffffffffffffffffffffffffffffffffffffff1673ffffffffffffffffffffffffffffffffffffffff16815260200190815260200160002060006101000a81548160ff021916908315150217905550600160036000600260009054906101000a900473ffffffffffffffffffffffffffffffffffffffff1673ffffffffffffffffffffffffffffffffffffffff1673ffffffffffffffffffffffffffffffffffffffff16815260200190815260200160002060006101000a81548160ff021916908315150217905550621939fd600181905550612390806101516000396000f3fe608060405234801561001057600080fd5b50600436106100885760003560e01c80639e23b0771161005b5780639e23b07714610127578063aa9a068f14610143578063f7b1080814610165578063f851a4401461019557610088565b806324d7806c1461008d578063346a16c4146100bd57806339500f34146100d9578063429b62e5146100f7575b600080fd5b6100a760048036038101906100a29190610aaf565b6101b3565b6040516100b49190610af7565b60405180910390f35b6100d760048036038101906100d29190610b48565b610209565b005b6100e16104b5565b6040516100ee9190610b97565b60405180910390f35b610111600480360381019061010c9190610aaf565b6104bb565b60405161011e9190610af7565b60405180910390f35b610141600480360381019061013c9190610cf8565b6104db565b005b61014b610683565b60405161015c959493929190611054565b60405180910390f35b61017f600480360381019061017a91906110ca565b6109cb565b60405161018c9190611156565b60405180910390f35b61019d610a0a565b6040516101aa9190611180565b60405180910390f35b6000600360008373ffffffffffffffffffffffffffffffffffffffff1673ffffffffffffffffffffffffffffffffffffffff16815260200190815260200160002060009054906101000a900460ff169050919050565b60005b60008054905081101561047557600080600083815481106102305761022f61119b565b5b9060005260206000200160009054906101000a900473ffffffffffffffffffffffffffffffffffffffff1673ffffffffffffffffffffffffffffffffffffffff16631d7450ac6040518163ffffffff1660e01b8152600401600060405180830381865afa1580156102a5573d6000803e3d6000fd5b505050506040513d6000823e3d601f19601f820116820180604052508101906102ce9190611264565b94505050509150848203610466576000819050600084815481106102f5576102f461119b565b5b9060005260206000200160009054906101000a900473ffffffffffffffffffffffffffffffffffffffff1673ffffffffffffffffffffffffffffffffffffffff1663a6f9dae1866040518263ffffffff1660e01b81526004016103589190611180565b600060405180830381600087803b15801561037257600080fd5b505af1158015610386573d6000803e3d6000fd5b505050508173ffffffffffffffffffffffffffffffffffffffff163373ffffffffffffffffffffffffffffffffffffffff16146103f8576040517f08c379a00000000000000000000000000000000000000000000000000000000081526004016103ef9061139a565b60405180910390fd5b8473ffffffffffffffffffffffffffffffffffffffff168173ffffffffffffffffffffffffffffffffffffffff167f80d70e2f1a3ad68b38c069f4d530fc790f30cb753a1be3c63688721b707f242e886040516104559190610b97565b60405180910390a3505050506104b1565b5050808060010191505061020c565b506040517f08c379a00000000000000000000000000000000000000000000000000000000081526004016104a890611406565b60405180910390fd5b5050565b60015481565b60036020528060005260406000206000915054906101000a900460ff1681565b600360003373ffffffffffffffffffffffffffffffffffffffff1673ffffffffffffffffffffffffffffffffffffffff16815260200190815260200160002060009054906101000a900460ff16610567576040517f08c379a000000000000000000000000000000000000000000000000000000000815260040161055e90611498565b60405180910390fd5b60006001548585858560405161057c90610a30565b61058a9594939291906114f1565b604051809103906000f0801580156105a6573d6000803e3d6000fd5b5090506000819080600181540180825580915050600190039060005260206000200160009091909190916101000a81548173ffffffffffffffffffffffffffffffffffffffff021916908373ffffffffffffffffffffffffffffffffffffffff1602179055508173ffffffffffffffffffffffffffffffffffffffff167f7c2386ddb9cf4c20a2495b0c65f9ecc27d38c5af2b88587642852b689c64ebc560015487878760405161065a9493929190611552565b60405180910390a2600d6001600082825461067591906115d4565b925050819055505050505050565b606080606080606060008080549050905060008167ffffffffffffffff8111156106b0576106af610bcd565b5b6040519080825280602002602001820160405280156106de5781602001602082028036833780820191505090505b50905060008267ffffffffffffffff8111156106fd576106fc610bcd565b5b60405190808252806020026020018201604052801561073057816020015b606081526020019060019003908161071b5790505b50905060008367ffffffffffffffff81111561074f5761074e610bcd565b5b60405190808252806020026020018201604052801561078257816020015b606081526020019060019003908161076d5790505b50905060008467ffffffffffffffff8111156107a1576107a0610bcd565b5b6040519080825280602002602001820160405280156107cf5781602001602082028036833780820191505090505b50905060008567ffffffffffffffff8111156107ee576107ed610bcd565b5b60405190808252806020026020018201604052801561081c5781602001602082028036833780820191505090505b50905060005b868110156109ae576000818154811061083e5761083d61119b565b5b9060005260206000200160009054906101000a900473ffffffffffffffffffffffffffffffffffffffff1673ffffffffffffffffffffffffffffffffffffffff16631d7450ac6040518163ffffffff1660e01b8152600401600060405180830381865afa1580156108b3573d6000803e3d6000fd5b505050506040513d6000823e3d601f19601f820116820180604052508101906108dc9190611264565b8a86815181106108ef576108ee61119b565b5b602002602001018a87815181106109095761090861119b565b5b602002602001018a88815181106109235761092261119b565b5b602002602001018a898151811061093d5761093c61119b565b5b602002602001018a8a815181106109575761095661119b565b5b602002602001018573ffffffffffffffffffffffffffffffffffffffff1673ffffffffffffffffffffffffffffffffffffffff16815250858152508590528590528581525050505050508080600101915050610822565b5084848484849a509a509a509a509a505050505050509091929394565b600081815481106109db57600080fd5b906000526020600020016000915054906101000a900473ffffffffffffffffffffffffffffffffffffffff1681565b600260009054906101000a900473ffffffffffffffffffffffffffffffffffffffff1681565b610d528061160983390190565b6000604051905090565b600080fd5b600080fd5b600073ffffffffffffffffffffffffffffffffffffffff82169050919050565b6000610a7c82610a51565b9050919050565b610a8c81610a71565b8114610a9757600080fd5b50565b600081359050610aa981610a83565b92915050565b600060208284031215610ac557610ac4610a47565b5b6000610ad384828501610a9a565b91505092915050565b60008115159050919050565b610af181610adc565b82525050565b6000602082019050610b0c6000830184610ae8565b92915050565b6000819050919050565b610b2581610b12565b8114610b3057600080fd5b50565b600081359050610b4281610b1c565b92915050565b60008060408385031215610b5f57610b5e610a47565b5b6000610b6d85828601610b33565b9250506020610b7e85828601610a9a565b9150509250929050565b610b9181610b12565b82525050565b6000602082019050610bac6000830184610b88565b92915050565b600080fd5b600080fd5b6000601f19601f8301169050919050565b7f4e487b7100000000000000000000000000000000000000000000000000000000600052604160045260246000fd5b610c0582610bbc565b810181811067ffffffffffffffff82111715610c2457610c23610bcd565b5b80604052505050565b6000610c37610a3d565b9050610c438282610bfc565b919050565b600067ffffffffffffffff821115610c6357610c62610bcd565b5b610c6c82610bbc565b9050602081019050919050565b82818337600083830152505050565b6000610c9b610c9684610c48565b610c2d565b905082815260208101848484011115610cb757610cb6610bb7565b5b610cc2848285610c79565b509392505050565b600082601f830112610cdf57610cde610bb2565b5b8135610cef848260208601610c88565b91505092915050565b60008060008060808587031215610d1257610d11610a47565b5b600085013567ffffffffffffffff811115610d3057610d2f610a4c565b5b610d3c87828801610cca565b945050602085013567ffffffffffffffff811115610d5d57610d5c610a4c565b5b610d6987828801610cca565b9350506040610d7a87828801610b33565b9250506060610d8b87828801610a9a565b91505092959194509250565b600081519050919050565b600082825260208201905092915050565b6000819050602082019050919050565b610dcc81610b12565b82525050565b6000610dde8383610dc3565b60208301905092915050565b6000602082019050919050565b6000610e0282610d97565b610e0c8185610da2565b9350610e1783610db3565b8060005b83811015610e48578151610e2f8882610dd2565b9750610e3a83610dea565b925050600181019050610e1b565b5085935050505092915050565b600081519050919050565b600082825260208201905092915050565b6000819050602082019050919050565b600081519050919050565b600082825260208201905092915050565b60005b83811015610ebb578082015181840152602081019050610ea0565b60008484015250505050565b6000610ed282610e81565b610edc8185610e8c565b9350610eec818560208601610e9d565b610ef581610bbc565b840191505092915050565b6000610f0c8383610ec7565b905092915050565b6000602082019050919050565b6000610f2c82610e55565b610f368185610e60565b935083602082028501610f4885610e71565b8060005b85811015610f845784840389528151610f658582610f00565b9450610f7083610f14565b925060208a01995050600181019050610f4c565b50829750879550505050505092915050565b600081519050919050565b600082825260208201905092915050565b6000819050602082019050919050565b610fcb81610a71565b82525050565b6000610fdd8383610fc2565b60208301905092915050565b6000602082019050919050565b600061100182610f96565b61100b8185610fa1565b935061101683610fb2565b8060005b8381101561104757815161102e8882610fd1565b975061103983610fe9565b92505060018101905061101a565b5085935050505092915050565b600060a082019050818103600083015261106e8188610df7565b905081810360208301526110828187610f21565b905081810360408301526110968186610f21565b905081810360608301526110aa8185610df7565b905081810360808301526110be8184610ff6565b90509695505050505050565b6000602082840312156110e0576110df610a47565b5b60006110ee84828501610b33565b91505092915050565b6000819050919050565b600061111c61111761111284610a51565b6110f7565b610a51565b9050919050565b600061112e82611101565b9050919050565b600061114082611123565b9050919050565b61115081611135565b82525050565b600060208201905061116b6000830184611147565b92915050565b61117a81610a71565b82525050565b60006020820190506111956000830184611171565b92915050565b7f4e487b7100000000000000000000000000000000000000000000000000000000600052603260045260246000fd5b6000815190506111d981610b1c565b92915050565b60006111f26111ed84610c48565b610c2d565b90508281526020810184848401111561120e5761120d610bb7565b5b611219848285610e9d565b509392505050565b600082601f83011261123657611235610bb2565b5b81516112468482602086016111df565b91505092915050565b60008151905061125e81610a83565b92915050565b600080600080600060a086880312156112805761127f610a47565b5b600061128e888289016111ca565b955050602086015167ffffffffffffffff8111156112af576112ae610a4c565b5b6112bb88828901611221565b945050604086015167ffffffffffffffff8111156112dc576112db610a4c565b5b6112e888828901611221565b93505060606112f9888289016111ca565b925050608061130a8882890161124f565b9150509295509295909350565b600082825260208201905092915050565b7f4f6e6c7920746865206f776e65722063616e206368616e676520746865206f7760008201527f6e65720000000000000000000000000000000000000000000000000000000000602082015250565b6000611384602383611317565b915061138f82611328565b604082019050919050565b600060208201905081810360008301526113b381611377565b9050919050565b7f50726f7065727479206e6f7420666f756e640000000000000000000000000000600082015250565b60006113f0601283611317565b91506113fb826113ba565b602082019050919050565b6000602082019050818103600083015261141f816113e3565b9050919050565b7f4f6e6c7920616e2061646d696e2063616e20706572666f726d2074686973206160008201527f6374696f6e000000000000000000000000000000000000000000000000000000602082015250565b6000611482602583611317565b915061148d82611426565b604082019050919050565b600060208201905081810360008301526114b181611475565b9050919050565b60006114c382610e81565b6114cd8185611317565b93506114dd818560208601610e9d565b6114e681610bbc565b840191505092915050565b600060a0820190506115066000830188610b88565b818103602083015261151881876114b8565b9050818103604083015261152c81866114b8565b905061153b6060830185610b88565b6115486080830184611171565b9695505050505050565b60006080820190506115676000830187610b88565b818103602083015261157981866114b8565b9050818103604083015261158d81856114b8565b905061159c6060830184610b88565b95945050505050565b7f4e487b7100000000000000000000000000000000000000000000000000000000600052601160045260246000fd5b60006115df82610b12565b91506115ea83610b12565b9250828201905080821115611602576116016115a5565b5b9291505056fe608060405234801561001057600080fd5b50604051610d52380380610d528339818101604052810190610032919061030d565b6040518060a001604052808681526020018581526020018481526020018381526020018273ffffffffffffffffffffffffffffffffffffffff168152506000808201518160000155602082015181600101908161008f91906105d7565b5060408201518160020190816100a591906105d7565b506060820151816003015560808201518160040160006101000a81548173ffffffffffffffffffffffffffffffffffffffff021916908373ffffffffffffffffffffffffffffffffffffffff16021790555090505050505050506106a9565b6000604051905090565b600080fd5b600080fd5b6000819050919050565b61012b81610118565b811461013657600080fd5b50565b60008151905061014881610122565b92915050565b600080fd5b600080fd5b6000601f19601f8301169050919050565b7f4e487b7100000000000000000000000000000000000000000000000000000000600052604160045260246000fd5b6101a182610158565b810181811067ffffffffffffffff821117156101c0576101bf610169565b5b80604052505050565b60006101d3610104565b90506101df8282610198565b919050565b600067ffffffffffffffff8211156101ff576101fe610169565b5b61020882610158565b9050602081019050919050565b60005b83811015610233578082015181840152602081019050610218565b60008484015250505050565b600061025261024d846101e4565b6101c9565b90508281526020810184848401111561026e5761026d610153565b5b610279848285610215565b509392505050565b600082601f8301126102965761029561014e565b5b81516102a684826020860161023f565b91505092915050565b600073ffffffffffffffffffffffffffffffffffffffff82169050919050565b60006102da826102af565b9050919050565b6102ea816102cf565b81146102f557600080fd5b50565b600081519050610307816102e1565b92915050565b600080600080600060a086880312156103295761032861010e565b5b600061033788828901610139565b955050602086015167ffffffffffffffff81111561035857610357610113565b5b61036488828901610281565b945050604086015167ffffffffffffffff81111561038557610384610113565b5b61039188828901610281565b93505060606103a288828901610139565b92505060806103b3888289016102f8565b9150509295509295909350565b600081519050919050565b7f4e487b7100000000000000000000000000000000000000000000000000000000600052602260045260246000fd5b6000600282049050600182168061041257607f821691505b602082108103610425576104246103cb565b5b50919050565b60008190508160005260206000209050919050565b60006020601f8301049050919050565b600082821b905092915050565b60006008830261048d7fffffffffffffffffffffffffffffffffffffffffffffffffffffffffffffffff82610450565b6104978683610450565b95508019841693508086168417925050509392505050565b6000819050919050565b60006104d46104cf6104ca84610118565b6104af565b610118565b9050919050565b6000819050919050565b6104ee836104b9565b6105026104fa826104db565b84845461045d565b825550505050565b600090565b61051761050a565b6105228184846104e5565b505050565b5b818110156105465761053b60008261050f565b600181019050610528565b5050565b601f82111561058b5761055c8161042b565b61056584610440565b81016020851015610574578190505b61058861058085610440565b830182610527565b50505b505050565b600082821c905092915050565b60006105ae60001984600802610590565b1980831691505092915050565b60006105c7838361059d565b9150826002028217905092915050565b6105e0826103c0565b67ffffffffffffffff8111156105f9576105f8610169565b5b61060382546103fa565b61060e82828561054a565b600060209050601f831160018114610641576000841561062f578287015190505b61063985826105bb565b8655506106a1565b601f19841661064f8661042b565b60005b8281101561067757848901518255600182019150602085019450602081019050610652565b868310156106945784890151610690601f89168261059d565b8355505b6001600288020188555050505b505050505050565b61069a806106b86000396000f3fe608060405234801561001057600080fd5b50600436106100415760003560e01c806314d57e8b146100465780631d7450ac14610068578063a6f9dae11461008a575b600080fd5b61004e6100a6565b60405161005f95949392919061052a565b60405180910390f35b6100706101fa565b60405161008195949392919061052a565b60405180910390f35b6100a4600480360381019061009f91906105bc565b610366565b005b60008060000154908060010180546100bd90610618565b80601f01602080910402602001604051908101604052809291908181526020018280546100e990610618565b80156101365780601f1061010b57610100808354040283529160200191610136565b820191906000526020600020905b81548152906001019060200180831161011957829003601f168201915b50505050509080600201805461014b90610618565b80601f016020809104026020016040519081016040528092919081815260200182805461017790610618565b80156101c45780601f10610199576101008083540402835291602001916101c4565b820191906000526020600020905b8154815290600101906020018083116101a757829003601f168201915b5050505050908060030154908060040160009054906101000a900473ffffffffffffffffffffffffffffffffffffffff16905085565b6000606080600080600080015460006001016000600201600060030154600060040160009054906101000a900473ffffffffffffffffffffffffffffffffffffffff1683805461024990610618565b80601f016020809104026020016040519081016040528092919081815260200182805461027590610618565b80156102c25780601f10610297576101008083540402835291602001916102c2565b820191906000526020600020905b8154815290600101906020018083116102a557829003601f168201915b505050505093508280546102d590610618565b80601f016020809104026020016040519081016040528092919081815260200182805461030190610618565b801561034e5780601f106103235761010080835404028352916020019161034e565b820191906000526020600020905b81548152906001019060200180831161033157829003601f168201915b50505050509250945094509450945094509091929394565b60008060040160009054906101000a900473ffffffffffffffffffffffffffffffffffffffff16905081600060040160006101000a81548173ffffffffffffffffffffffffffffffffffffffff021916908373ffffffffffffffffffffffffffffffffffffffff1602179055508173ffffffffffffffffffffffffffffffffffffffff168173ffffffffffffffffffffffffffffffffffffffff167f079a159bc2c4ed6aaee92c293d83b6527a380c127aca07f41d3ab4c590957f5660008001546040516104349190610649565b60405180910390a35050565b6000819050919050565b61045381610440565b82525050565b600081519050919050565b600082825260208201905092915050565b60005b83811015610493578082015181840152602081019050610478565b60008484015250505050565b6000601f19601f8301169050919050565b60006104bb82610459565b6104c58185610464565b93506104d5818560208601610475565b6104de8161049f565b840191505092915050565b600073ffffffffffffffffffffffffffffffffffffffff82169050919050565b6000610514826104e9565b9050919050565b61052481610509565b82525050565b600060a08201905061053f600083018861044a565b818103602083015261055181876104b0565b9050818103604083015261056581866104b0565b9050610574606083018561044a565b610581608083018461051b565b9695505050505050565b600080fd5b61059981610509565b81146105a457600080fd5b50565b6000813590506105b681610590565b92915050565b6000602082840312156105d2576105d161058b565b5b60006105e0848285016105a7565b91505092915050565b7f4e487b7100000000000000000000000000000000000000000000000000000000600052602260045260246000fd5b6000600282049050600182168061063057607f821691505b602082108103610643576106426105e9565b5b50919050565b600060208201905061065e600083018461044a565b9291505056fea2646970667358221220295b6748afa59092573d661d9b5565af20bfd2748d726c4f82b4efa8e25a17f864736f6c634300081c0033a26469706673582212209a0f1069ceed2d6ec148d3e6891b32a790323b55cf9cbda6e2c096b0b0cb1c5d64736f6c634300081c0033",
  "linkReferences": {},
  "deployedLinkReferences": {}
}