{
  "_format": "hh-sol-artifact-1",
  "contractName": "Token",
  "sourceName": "contracts/Token.sol",
  "abi": [
    {
      "inputs": [],
      "stateMutability": "nonpayable",
      "type": "constructor"
    },
    {
      "anonymous": false,
      "inputs": [
        {
          "indexed": false,
          "internalType": "uint256",
          "name": "id",
          "type": "uint256"
        },
        {
          "indexed": false,
          "internalType": "string",
          "name": "category",
          "type": "string"
        },
        {
          "indexed": false,
          "internalType": "string",
          "name": "location",
          "type": "string"
        },
        {
          "indexed": false,
          "internalType": "uint256",
          "name": "area",
          "type": "uint256"
        },
        {
          "indexed": true,
          "internalType": "address",
          "name": "owner",
          "type": "address"
        }
      ],
      "name": "PropertyCreated",
      "type": "event"
    },
    {
      "anonymous": false,
      "inputs": [
        {
          "indexed": false,
          "internalType": "uint256",
          "name": "id",
          "type": "uint256"
        },
        {
          "indexed": true,
          "internalType": "address",
          "name": "previousOwner",
          "type": "address"
        },
        {
          "indexed": true,
          "internalType": "address",
          "name": "newOwner",
          "type": "address"
        }
      ],
      "name": "PropertySold",
      "type": "event"
    },
    {
      "inputs": [
        {
          "internalType": "address",
          "name": "_admin",
          "type": "address"
        }
      ],
      "name": "addAdmin",
      "outputs": [],
      "stateMutability": "nonpayable",
      "type": "function"
    },
    {
      "inputs": [],
      "name": "admin",
      "outputs": [
        {
          "internalType": "address",
          "name": "",
          "type": "address"
        }
      ],
      "stateMutability": "view",
      "type": "function"
    },
    {
      "inputs": [
        {
          "internalType": "address",
          "name": "",
          "type": "address"
        }
      ],
      "name": "admins",
      "outputs": [
        {
          "internalType": "bool",
          "name": "",
          "type": "bool"
        }
      ],
      "stateMutability": "view",
      "type": "function"
    },
    {
      "inputs": [
        {
          "internalType": "string",
          "name": "category",
          "type": "string"
        },
        {
          "internalType": "string",
          "name": "location",
          "type": "string"
        },
        {
          "internalType": "uint256",
          "name": "area",
          "type": "uint256"
        },
        {
          "internalType": "address",
          "name": "owner",
          "type": "address"
        }
      ],
      "name": "createProperty",
      "outputs": [],
      "stateMutability": "nonpayable",
      "type": "function"
    },
    {
      "inputs": [],
      "name": "getDeployedContracts",
      "outputs": [
        {
          "internalType": "uint256[]",
          "name": "",
          "type": "uint256[]"
        },
        {
          "internalType": "string[]",
          "name": "",
          "type": "string[]"
        },
        {
          "internalType": "string[]",
          "name": "",
          "type": "string[]"
        },
        {
          "internalType": "uint256[]",
          "name": "",
          "type": "uint256[]"
        },
        {
          "internalType": "address[]",
          "name": "",
          "type": "address[]"
        }
      ],
      "stateMutability": "view",
      "type": "function"
    },
    {
      "inputs": [
        {
          "internalType": "address",
          "name": "_address",
          "type": "address"
        }
      ],
      "name": "isAdmin",
      "outputs": [
        {
          "internalType": "bool",
          "name": "",
          "type": "bool"
        }
      ],
      "stateMutability": "view",
      "type": "function"
    },
    {
      "inputs": [],
      "name": "nextPropertyId",
      "outputs": [
        {
          "internalType": "uint256",
          "name": "",
          "type": "uint256"
        }
      ],
      "stateMutability": "view",
      "type": "function"
    },
    {
      "inputs": [
        {
          "internalType": "uint256",
          "name": "",
          "type": "uint256"
        }
      ],
      "name": "properties",
      "outputs": [
        {
          "internalType": "contract Property",
          "name": "",
          "type": "address"
        }
      ],
      "stateMutability": "view",
      "type": "function"
    },
    {
      "inputs": [
        {
          "internalType": "address",
          "name": "_admin",
          "type": "address"
        }
      ],
      "name": "removeAdmin",
      "outputs": [],
      "stateMutability": "nonpayable",
      "type": "function"
    },
    {
      "inputs": [
        {
          "internalType": "uint256",
          "name": "id",
          "type": "uint256"
        },
        {
          "internalType": "address",
          "name": "newOwner",
          "type": "address"
        }
      ],
      "name": "sellProperty",
      "outputs": [],
      "stateMutability": "nonpayable",
      "type": "function"
    }
  ],
  "bytecode": "0x608060405273f39fd6e51aad88f6f4ce6ab8827279cfffb92266600260006101000a81548173ffffffffffffffffffffffffffffffffffffffff021916908373ffffffffffffffffffffffffffffffffffffffff16021790555034801561006557600080fd5b506001600360003373ffffffffffffffffffffffffffffffffffffffff1673ffffffffffffffffffffffffffffffffffffffff16815260200190815260200160002060006101000a81548160ff021916908315150217905550600160036000600260009054906101000a900473ffffffffffffffffffffffffffffffffffffffff1673ffffffffffffffffffffffffffffffffffffffff1673ffffffffffffffffffffffffffffffffffffffff16815260200190815260200160002060006101000a81548160ff021916908315150217905550621939fd6001819055506126d8806101516000396000f3fe608060405234801561001057600080fd5b506004361061009e5760003560e01c8063704802751161006657806370480275146101595780639e23b07714610175578063aa9a068f14610191578063f7b10808146101b3578063f851a440146101e35761009e565b80631785f53c146100a357806324d7806c146100bf578063346a16c4146100ef57806339500f341461010b578063429b62e514610129575b600080fd5b6100bd60048036038101906100b89190610cd3565b610201565b005b6100d960048036038101906100d49190610cd3565b6102ec565b6040516100e69190610d1b565b60405180910390f35b61010960048036038101906101049190610d6c565b610342565b005b6101136105ee565b6040516101209190610dbb565b60405180910390f35b610143600480360381019061013e9190610cd3565b6105f4565b6040516101509190610d1b565b60405180910390f35b610173600480360381019061016e9190610cd3565b610614565b005b61018f600480360381019061018a9190610f1c565b6106ff565b005b6101996108a7565b6040516101aa959493929190611278565b60405180910390f35b6101cd60048036038101906101c891906112ee565b610bef565b6040516101da919061137a565b60405180910390f35b6101eb610c2e565b6040516101f891906113a4565b60405180910390f35b600260009054906101000a900473ffffffffffffffffffffffffffffffffffffffff1673ffffffffffffffffffffffffffffffffffffffff163373ffffffffffffffffffffffffffffffffffffffff1614610291576040517f08c379a000000000000000000000000000000000000000000000000000000000815260040161028890611442565b60405180910390fd5b6000600360008373ffffffffffffffffffffffffffffffffffffffff1673ffffffffffffffffffffffffffffffffffffffff16815260200190815260200160002060006101000a81548160ff02191690831515021790555050565b6000600360008373ffffffffffffffffffffffffffffffffffffffff1673ffffffffffffffffffffffffffffffffffffffff16815260200190815260200160002060009054906101000a900460ff169050919050565b60005b6000805490508110156105ae576000806000838154811061036957610368611462565b5b9060005260206000200160009054906101000a900473ffffffffffffffffffffffffffffffffffffffff1673ffffffffffffffffffffffffffffffffffffffff16631d7450ac6040518163ffffffff1660e01b8152600401600060405180830381865afa1580156103de573d6000803e3d6000fd5b505050506040513d6000823e3d601f19601f82011682018060405250810190610407919061152b565b9450505050915084820361059f5760008190506000848154811061042e5761042d611462565b5b9060005260206000200160009054906101000a900473ffffffffffffffffffffffffffffffffffffffff1673ffffffffffffffffffffffffffffffffffffffff1663a6f9dae1866040518263ffffffff1660e01b815260040161049191906113a4565b600060405180830381600087803b1580156104ab57600080fd5b505af11580156104bf573d6000803e3d6000fd5b505050508173ffffffffffffffffffffffffffffffffffffffff163373ffffffffffffffffffffffffffffffffffffffff1614610531576040517f08c379a000000000000000000000000000000000000000000000000000000000815260040161052890611650565b60405180910390fd5b8473ffffffffffffffffffffffffffffffffffffffff168173ffffffffffffffffffffffffffffffffffffffff167f80d70e2f1a3ad68b38c069f4d530fc790f30cb753a1be3c63688721b707f242e8860405161058e9190610dbb565b60405180910390a3505050506105ea565b50508080600101915050610345565b506040517f08c379a00000000000000000000000000000000000000000000000000000000081526004016105e1906116bc565b60405180910390fd5b5050565b60015481565b60036020528060005260406000206000915054906101000a900460ff1681565b600260009054906101000a900473ffffffffffffffffffffffffffffffffffffffff1673ffffffffffffffffffffffffffffffffffffffff163373ffffffffffffffffffffffffffffffffffffffff16146106a4576040517f08c379a000000000000000000000000000000000000000000000000000000000815260040161069b9061174e565b60405180910390fd5b6001600360008373ffffffffffffffffffffffffffffffffffffffff1673ffffffffffffffffffffffffffffffffffffffff16815260200190815260200160002060006101000a81548160ff02191690831515021790555050565b600360003373ffffffffffffffffffffffffffffffffffffffff1673ffffffffffffffffffffffffffffffffffffffff16815260200190815260200160002060009054906101000a900460ff1661078b576040517f08c379a0000000000000000000000000000000000000000000000000000000008152600401610782906117e0565b60405180910390fd5b6000600154858585856040516107a090610c54565b6107ae959493929190611839565b604051809103906000f0801580156107ca573d6000803e3d6000fd5b5090506000819080600181540180825580915050600190039060005260206000200160009091909190916101000a81548173ffffffffffffffffffffffffffffffffffffffff021916908373ffffffffffffffffffffffffffffffffffffffff1602179055508173ffffffffffffffffffffffffffffffffffffffff167f7c2386ddb9cf4c20a2495b0c65f9ecc27d38c5af2b88587642852b689c64ebc560015487878760405161087e949392919061189a565b60405180910390a2600d60016000828254610899919061191c565b925050819055505050505050565b606080606080606060008080549050905060008167ffffffffffffffff8111156108d4576108d3610df1565b5b6040519080825280602002602001820160405280156109025781602001602082028036833780820191505090505b50905060008267ffffffffffffffff81111561092157610920610df1565b5b60405190808252806020026020018201604052801561095457816020015b606081526020019060019003908161093f5790505b50905060008367ffffffffffffffff81111561097357610972610df1565b5b6040519080825280602002602001820160405280156109a657816020015b60608152602001906001900390816109915790505b50905060008467ffffffffffffffff8111156109c5576109c4610df1565b5b6040519080825280602002602001820160405280156109f35781602001602082028036833780820191505090505b50905060008567ffffffffffffffff811115610a1257610a11610df1565b5b604051908082528060200260200182016040528015610a405781602001602082028036833780820191505090505b50905060005b86811015610bd25760008181548110610a6257610a61611462565b5b9060005260206000200160009054906101000a900473ffffffffffffffffffffffffffffffffffffffff1673ffffffffffffffffffffffffffffffffffffffff16631d7450ac6040518163ffffffff1660e01b8152600401600060405180830381865afa158015610ad7573d6000803e3d6000fd5b505050506040513d6000823e3d601f19601f82011682018060405250810190610b00919061152b565b8a8681518110610b1357610b12611462565b5b602002602001018a8781518110610b2d57610b2c611462565b5b602002602001018a8881518110610b4757610b46611462565b5b602002602001018a8981518110610b6157610b60611462565b5b602002602001018a8a81518110610b7b57610b7a611462565b5b602002602001018573ffffffffffffffffffffffffffffffffffffffff1673ffffffffffffffffffffffffffffffffffffffff16815250858152508590528590528581525050505050508080600101915050610a46565b5084848484849a509a509a509a509a505050505050509091929394565b60008181548110610bff57600080fd5b906000526020600020016000915054906101000a900473ffffffffffffffffffffffffffffffffffffffff1681565b600260009054906101000a900473ffffffffffffffffffffffffffffffffffffffff1681565b610d528061195183390190565b6000604051905090565b600080fd5b600080fd5b600073ffffffffffffffffffffffffffffffffffffffff82169050919050565b6000610ca082610c75565b9050919050565b610cb081610c95565b8114610cbb57600080fd5b50565b600081359050610ccd81610ca7565b92915050565b600060208284031215610ce957610ce8610c6b565b5b6000610cf784828501610cbe565b91505092915050565b60008115159050919050565b610d1581610d00565b82525050565b6000602082019050610d306000830184610d0c565b92915050565b6000819050919050565b610d4981610d36565b8114610d5457600080fd5b50565b600081359050610d6681610d40565b92915050565b60008060408385031215610d8357610d82610c6b565b5b6000610d9185828601610d57565b9250506020610da285828601610cbe565b9150509250929050565b610db581610d36565b82525050565b6000602082019050610dd06000830184610dac565b92915050565b600080fd5b600080fd5b6000601f19601f8301169050919050565b7f4e487b7100000000000000000000000000000000000000000000000000000000600052604160045260246000fd5b610e2982610de0565b810181811067ffffffffffffffff82111715610e4857610e47610df1565b5b80604052505050565b6000610e5b610c61565b9050610e678282610e20565b919050565b600067ffffffffffffffff821115610e8757610e86610df1565b5b610e9082610de0565b9050602081019050919050565b82818337600083830152505050565b6000610ebf610eba84610e6c565b610e51565b905082815260208101848484011115610edb57610eda610ddb565b5b610ee6848285610e9d565b509392505050565b600082601f830112610f0357610f02610dd6565b5b8135610f13848260208601610eac565b91505092915050565b60008060008060808587031215610f3657610f35610c6b565b5b600085013567ffffffffffffffff811115610f5457610f53610c70565b5b610f6087828801610eee565b945050602085013567ffffffffffffffff811115610f8157610f80610c70565b5b610f8d87828801610eee565b9350506040610f9e87828801610d57565b9250506060610faf87828801610cbe565b91505092959194509250565b600081519050919050565b600082825260208201905092915050565b6000819050602082019050919050565b610ff081610d36565b82525050565b60006110028383610fe7565b60208301905092915050565b6000602082019050919050565b600061102682610fbb565b6110308185610fc6565b935061103b83610fd7565b8060005b8381101561106c5781516110538882610ff6565b975061105e8361100e565b92505060018101905061103f565b5085935050505092915050565b600081519050919050565b600082825260208201905092915050565b6000819050602082019050919050565b600081519050919050565b600082825260208201905092915050565b60005b838110156110df5780820151818401526020810190506110c4565b60008484015250505050565b60006110f6826110a5565b61110081856110b0565b93506111108185602086016110c1565b61111981610de0565b840191505092915050565b600061113083836110eb565b905092915050565b6000602082019050919050565b600061115082611079565b61115a8185611084565b93508360208202850161116c85611095565b8060005b858110156111a857848403895281516111898582611124565b945061119483611138565b925060208a01995050600181019050611170565b50829750879550505050505092915050565b600081519050919050565b600082825260208201905092915050565b6000819050602082019050919050565b6111ef81610c95565b82525050565b600061120183836111e6565b60208301905092915050565b6000602082019050919050565b6000611225826111ba565b61122f81856111c5565b935061123a836111d6565b8060005b8381101561126b57815161125288826111f5565b975061125d8361120d565b92505060018101905061123e565b5085935050505092915050565b600060a0820190508181036000830152611292818861101b565b905081810360208301526112a68187611145565b905081810360408301526112ba8186611145565b905081810360608301526112ce818561101b565b905081810360808301526112e2818461121a565b90509695505050505050565b60006020828403121561130457611303610c6b565b5b600061131284828501610d57565b91505092915050565b6000819050919050565b600061134061133b61133684610c75565b61131b565b610c75565b9050919050565b600061135282611325565b9050919050565b600061136482611347565b9050919050565b61137481611359565b82525050565b600060208201905061138f600083018461136b565b92915050565b61139e81610c95565b82525050565b60006020820190506113b96000830184611395565b92915050565b600082825260208201905092915050565b7f4f6e6c792074686520636f6e7472616374206f776e65722063616e2072656d6f60008201527f76652061646d696e730000000000000000000000000000000000000000000000602082015250565b600061142c6029836113bf565b9150611437826113d0565b604082019050919050565b6000602082019050818103600083015261145b8161141f565b9050919050565b7f4e487b7100000000000000000000000000000000000000000000000000000000600052603260045260246000fd5b6000815190506114a081610d40565b92915050565b60006114b96114b484610e6c565b610e51565b9050828152602081018484840111156114d5576114d4610ddb565b5b6114e08482856110c1565b509392505050565b600082601f8301126114fd576114fc610dd6565b5b815161150d8482602086016114a6565b91505092915050565b60008151905061152581610ca7565b92915050565b600080600080600060a0868803121561154757611546610c6b565b5b600061155588828901611491565b955050602086015167ffffffffffffffff81111561157657611575610c70565b5b611582888289016114e8565b945050604086015167ffffffffffffffff8111156115a3576115a2610c70565b5b6115af888289016114e8565b93505060606115c088828901611491565b92505060806115d188828901611516565b9150509295509295909350565b7f4f6e6c7920746865206f776e65722063616e206368616e676520746865206f7760008201527f6e65720000000000000000000000000000000000000000000000000000000000602082015250565b600061163a6023836113bf565b9150611645826115de565b604082019050919050565b600060208201905081810360008301526116698161162d565b9050919050565b7f50726f7065727479206e6f7420666f756e640000000000000000000000000000600082015250565b60006116a66012836113bf565b91506116b182611670565b602082019050919050565b600060208201905081810360008301526116d581611699565b9050919050565b7f4f6e6c792074686520636f6e7472616374206f776e65722063616e206164642060008201527f61646d696e730000000000000000000000000000000000000000000000000000602082015250565b60006117386026836113bf565b9150611743826116dc565b604082019050919050565b600060208201905081810360008301526117678161172b565b9050919050565b7f4f6e6c7920616e2061646d696e2063616e20706572666f726d2074686973206160008201527f6374696f6e000000000000000000000000000000000000000000000000000000602082015250565b60006117ca6025836113bf565b91506117d58261176e565b604082019050919050565b600060208201905081810360008301526117f9816117bd565b9050919050565b600061180b826110a5565b61181581856113bf565b93506118258185602086016110c1565b61182e81610de0565b840191505092915050565b600060a08201905061184e6000830188610dac565b81810360208301526118608187611800565b905081810360408301526118748186611800565b90506118836060830185610dac565b6118906080830184611395565b9695505050505050565b60006080820190506118af6000830187610dac565b81810360208301526118c18186611800565b905081810360408301526118d58185611800565b90506118e46060830184610dac565b95945050505050565b7f4e487b7100000000000000000000000000000000000000000000000000000000600052601160045260246000fd5b600061192782610d36565b915061193283610d36565b925082820190508082111561194a576119496118ed565b5b9291505056fe608060405234801561001057600080fd5b50604051610d52380380610d528339818101604052810190610032919061030d565b6040518060a001604052808681526020018581526020018481526020018381526020018273ffffffffffffffffffffffffffffffffffffffff168152506000808201518160000155602082015181600101908161008f91906105d7565b5060408201518160020190816100a591906105d7565b506060820151816003015560808201518160040160006101000a81548173ffffffffffffffffffffffffffffffffffffffff021916908373ffffffffffffffffffffffffffffffffffffffff16021790555090505050505050506106a9565b6000604051905090565b600080fd5b600080fd5b6000819050919050565b61012b81610118565b811461013657600080fd5b50565b60008151905061014881610122565b92915050565b600080fd5b600080fd5b6000601f19601f8301169050919050565b7f4e487b7100000000000000000000000000000000000000000000000000000000600052604160045260246000fd5b6101a182610158565b810181811067ffffffffffffffff821117156101c0576101bf610169565b5b80604052505050565b60006101d3610104565b90506101df8282610198565b919050565b600067ffffffffffffffff8211156101ff576101fe610169565b5b61020882610158565b9050602081019050919050565b60005b83811015610233578082015181840152602081019050610218565b60008484015250505050565b600061025261024d846101e4565b6101c9565b90508281526020810184848401111561026e5761026d610153565b5b610279848285610215565b509392505050565b600082601f8301126102965761029561014e565b5b81516102a684826020860161023f565b91505092915050565b600073ffffffffffffffffffffffffffffffffffffffff82169050919050565b60006102da826102af565b9050919050565b6102ea816102cf565b81146102f557600080fd5b50565b600081519050610307816102e1565b92915050565b600080600080600060a086880312156103295761032861010e565b5b600061033788828901610139565b955050602086015167ffffffffffffffff81111561035857610357610113565b5b61036488828901610281565b945050604086015167ffffffffffffffff81111561038557610384610113565b5b61039188828901610281565b93505060606103a288828901610139565b92505060806103b3888289016102f8565b9150509295509295909350565b600081519050919050565b7f4e487b7100000000000000000000000000000000000000000000000000000000600052602260045260246000fd5b6000600282049050600182168061041257607f821691505b602082108103610425576104246103cb565b5b50919050565b60008190508160005260206000209050919050565b60006020601f8301049050919050565b600082821b905092915050565b60006008830261048d7fffffffffffffffffffffffffffffffffffffffffffffffffffffffffffffffff82610450565b6104978683610450565b95508019841693508086168417925050509392505050565b6000819050919050565b60006104d46104cf6104ca84610118565b6104af565b610118565b9050919050565b6000819050919050565b6104ee836104b9565b6105026104fa826104db565b84845461045d565b825550505050565b600090565b61051761050a565b6105228184846104e5565b505050565b5b818110156105465761053b60008261050f565b600181019050610528565b5050565b601f82111561058b5761055c8161042b565b61056584610440565b81016020851015610574578190505b61058861058085610440565b830182610527565b50505b505050565b600082821c905092915050565b60006105ae60001984600802610590565b1980831691505092915050565b60006105c7838361059d565b9150826002028217905092915050565b6105e0826103c0565b67ffffffffffffffff8111156105f9576105f8610169565b5b61060382546103fa565b61060e82828561054a565b600060209050601f831160018114610641576000841561062f578287015190505b61063985826105bb565b8655506106a1565b601f19841661064f8661042b565b60005b8281101561067757848901518255600182019150602085019450602081019050610652565b868310156106945784890151610690601f89168261059d565b8355505b6001600288020188555050505b505050505050565b61069a806106b86000396000f3fe608060405234801561001057600080fd5b50600436106100415760003560e01c806314d57e8b146100465780631d7450ac14610068578063a6f9dae11461008a575b600080fd5b61004e6100a6565b60405161005f95949392919061052a565b60405180910390f35b6100706101fa565b60405161008195949392919061052a565b60405180910390f35b6100a4600480360381019061009f91906105bc565b610366565b005b60008060000154908060010180546100bd90610618565b80601f01602080910402602001604051908101604052809291908181526020018280546100e990610618565b80156101365780601f1061010b57610100808354040283529160200191610136565b820191906000526020600020905b81548152906001019060200180831161011957829003601f168201915b50505050509080600201805461014b90610618565b80601f016020809104026020016040519081016040528092919081815260200182805461017790610618565b80156101c45780601f10610199576101008083540402835291602001916101c4565b820191906000526020600020905b8154815290600101906020018083116101a757829003601f168201915b5050505050908060030154908060040160009054906101000a900473ffffffffffffffffffffffffffffffffffffffff16905085565b6000606080600080600080015460006001016000600201600060030154600060040160009054906101000a900473ffffffffffffffffffffffffffffffffffffffff1683805461024990610618565b80601f016020809104026020016040519081016040528092919081815260200182805461027590610618565b80156102c25780601f10610297576101008083540402835291602001916102c2565b820191906000526020600020905b8154815290600101906020018083116102a557829003601f168201915b505050505093508280546102d590610618565b80601f016020809104026020016040519081016040528092919081815260200182805461030190610618565b801561034e5780601f106103235761010080835404028352916020019161034e565b820191906000526020600020905b81548152906001019060200180831161033157829003601f168201915b50505050509250945094509450945094509091929394565b60008060040160009054906101000a900473ffffffffffffffffffffffffffffffffffffffff16905081600060040160006101000a81548173ffffffffffffffffffffffffffffffffffffffff021916908373ffffffffffffffffffffffffffffffffffffffff1602179055508173ffffffffffffffffffffffffffffffffffffffff168173ffffffffffffffffffffffffffffffffffffffff167f079a159bc2c4ed6aaee92c293d83b6527a380c127aca07f41d3ab4c590957f5660008001546040516104349190610649565b60405180910390a35050565b6000819050919050565b61045381610440565b82525050565b600081519050919050565b600082825260208201905092915050565b60005b83811015610493578082015181840152602081019050610478565b60008484015250505050565b6000601f19601f8301169050919050565b60006104bb82610459565b6104c58185610464565b93506104d5818560208601610475565b6104de8161049f565b840191505092915050565b600073ffffffffffffffffffffffffffffffffffffffff82169050919050565b6000610514826104e9565b9050919050565b61052481610509565b82525050565b600060a08201905061053f600083018861044a565b818103602083015261055181876104b0565b9050818103604083015261056581866104b0565b9050610574606083018561044a565b610581608083018461051b565b9695505050505050565b600080fd5b61059981610509565b81146105a457600080fd5b50565b6000813590506105b681610590565b92915050565b6000602082840312156105d2576105d161058b565b5b60006105e0848285016105a7565b91505092915050565b7f4e487b7100000000000000000000000000000000000000000000000000000000600052602260045260246000fd5b6000600282049050600182168061063057607f821691505b602082108103610643576106426105e9565b5b50919050565b600060208201905061065e600083018461044a565b9291505056fea264697066735822122085fb93983b7b43616cb8c772bbc80b1553baa0204960e23ff268f0d6e1e00c7964736f6c634300081c0033a2646970667358221220b63bebaa55ac6e8e7ae3a8e51d35686e1da8e0ff2fb52cbb0fe30454d51273cb64736f6c634300081c0033",
  "linkReferences": {},
  "deployedLinkReferences": {}
}