{
  "_format": "hh-sol-artifact-1",
  "contractName": "Token",
  "sourceName": "contracts/Token.sol",
  "abi": [
    {
      "inputs": [],
      "stateMutability": "nonpayable",
      "type": "constructor"
    },
    {
      "anonymous": false,
      "inputs": [
        {
          "indexed": false,
          "internalType": "uint256",
          "name": "id",
          "type": "uint256"
        },
        {
          "indexed": false,
          "internalType": "string",
          "name": "category",
          "type": "string"
        },
        {
          "indexed": false,
          "internalType": "string",
          "name": "location",
          "type": "string"
        },
        {
          "indexed": false,
          "internalType": "uint256",
          "name": "area",
          "type": "uint256"
        },
        {
          "indexed": true,
          "internalType": "address",
          "name": "owner",
          "type": "address"
        }
      ],
      "name": "PropertyCreated",
      "type": "event"
    },
    {
      "anonymous": false,
      "inputs": [
        {
          "indexed": false,
          "internalType": "uint256",
          "name": "id",
          "type": "uint256"
        },
        {
          "indexed": true,
          "internalType": "address",
          "name": "previousOwner",
          "type": "address"
        },
        {
          "indexed": true,
          "internalType": "address",
          "name": "newOwner",
          "type": "address"
        }
      ],
      "name": "PropertySold",
      "type": "event"
    },
    {
      "inputs": [
        {
          "internalType": "address",
          "name": "_admin",
          "type": "address"
        }
      ],
      "name": "addAdmin",
      "outputs": [],
      "stateMutability": "nonpayable",
      "type": "function"
    },
    {
      "inputs": [],
      "name": "admin",
      "outputs": [
        {
          "internalType": "address",
          "name": "",
          "type": "address"
        }
      ],
      "stateMutability": "view",
      "type": "function"
    },
    {
      "inputs": [
        {
          "internalType": "address",
          "name": "",
          "type": "address"
        }
      ],
      "name": "admins",
      "outputs": [
        {
          "internalType": "bool",
          "name": "",
          "type": "bool"
        }
      ],
      "stateMutability": "view",
      "type": "function"
    },
    {
      "inputs": [
        {
          "internalType": "string",
          "name": "category",
          "type": "string"
        },
        {
          "internalType": "string",
          "name": "location",
          "type": "string"
        },
        {
          "internalType": "uint256",
          "name": "area",
          "type": "uint256"
        },
        {
          "internalType": "address",
          "name": "owner",
          "type": "address"
        }
      ],
      "name": "createProperty",
      "outputs": [],
      "stateMutability": "nonpayable",
      "type": "function"
    },
    {
      "inputs": [],
      "name": "getDeployedContracts",
      "outputs": [
        {
          "internalType": "uint256[]",
          "name": "",
          "type": "uint256[]"
        },
        {
          "internalType": "string[]",
          "name": "",
          "type": "string[]"
        },
        {
          "internalType": "string[]",
          "name": "",
          "type": "string[]"
        },
        {
          "internalType": "uint256[]",
          "name": "",
          "type": "uint256[]"
        },
        {
          "internalType": "address[]",
          "name": "",
          "type": "address[]"
        }
      ],
      "stateMutability": "view",
      "type": "function"
    },
    {
      "inputs": [
        {
          "internalType": "address",
          "name": "_address",
          "type": "address"
        }
      ],
      "name": "isAdmin",
      "outputs": [
        {
          "internalType": "bool",
          "name": "",
          "type": "bool"
        }
      ],
      "stateMutability": "view",
      "type": "function"
    },
    {
      "inputs": [],
      "name": "nextPropertyId",
      "outputs": [
        {
          "internalType": "uint256",
          "name": "",
          "type": "uint256"
        }
      ],
      "stateMutability": "view",
      "type": "function"
    },
    {
      "inputs": [
        {
          "internalType": "uint256",
          "name": "",
          "type": "uint256"
        }
      ],
      "name": "properties",
      "outputs": [
        {
          "internalType": "contract Property",
          "name": "",
          "type": "address"
        }
      ],
      "stateMutability": "view",
      "type": "function"
    },
    {
      "inputs": [
        {
          "internalType": "address",
          "name": "_admin",
          "type": "address"
        }
      ],
      "name": "removeAdmin",
      "outputs": [],
      "stateMutability": "nonpayable",
      "type": "function"
    },
    {
      "inputs": [
        {
          "internalType": "uint256",
          "name": "id",
          "type": "uint256"
        },
        {
          "internalType": "address",
          "name": "newOwner",
          "type": "address"
        }
      ],
      "name": "sellProperty",
      "outputs": [],
      "stateMutability": "nonpayable",
      "type": "function"
    }
  ],
  "bytecode": "0x608060405273f39fd6e51aad88f6f4ce6ab8827279cfffb92266600260006101000a81548173ffffffffffffffffffffffffffffffffffffffff021916908373ffffffffffffffffffffffffffffffffffffffff16021790555034801561006557600080fd5b506001600360003373ffffffffffffffffffffffffffffffffffffffff1673ffffffffffffffffffffffffffffffffffffffff16815260200190815260200160002060006101000a81548160ff021916908315150217905550600160036000600260009054906101000a900473ffffffffffffffffffffffffffffffffffffffff1673ffffffffffffffffffffffffffffffffffffffff1673ffffffffffffffffffffffffffffffffffffffff16815260200190815260200160002060006101000a81548160ff021916908315150217905550621939fd6001819055506125d8806101516000396000f3fe608060405234801561001057600080fd5b506004361061009e5760003560e01c8063704802751161006657806370480275146101595780639e23b07714610175578063aa9a068f14610191578063f7b10808146101b3578063f851a440146101e35761009e565b80631785f53c146100a357806324d7806c146100bf578063346a16c4146100ef57806339500f341461010b578063429b62e514610129575b600080fd5b6100bd60048036038101906100b89190610c65565b610201565b005b6100d960048036038101906100d49190610c65565b6102ec565b6040516100e69190610cad565b60405180910390f35b61010960048036038101906101049190610cfe565b610342565b005b610113610580565b6040516101209190610d4d565b60405180910390f35b610143600480360381019061013e9190610c65565b610586565b6040516101509190610cad565b60405180910390f35b610173600480360381019061016e9190610c65565b6105a6565b005b61018f600480360381019061018a9190610eae565b610691565b005b610199610839565b6040516101aa95949392919061120a565b60405180910390f35b6101cd60048036038101906101c89190611280565b610b81565b6040516101da919061130c565b60405180910390f35b6101eb610bc0565b6040516101f89190611336565b60405180910390f35b600260009054906101000a900473ffffffffffffffffffffffffffffffffffffffff1673ffffffffffffffffffffffffffffffffffffffff163373ffffffffffffffffffffffffffffffffffffffff1614610291576040517f08c379a0000000000000000000000000000000000000000000000000000000008152600401610288906113d4565b60405180910390fd5b6000600360008373ffffffffffffffffffffffffffffffffffffffff1673ffffffffffffffffffffffffffffffffffffffff16815260200190815260200160002060006101000a81548160ff02191690831515021790555050565b6000600360008373ffffffffffffffffffffffffffffffffffffffff1673ffffffffffffffffffffffffffffffffffffffff16815260200190815260200160002060009054906101000a900460ff169050919050565b60005b6000805490508110156105405760008060008381548110610369576103686113f4565b5b9060005260206000200160009054906101000a900473ffffffffffffffffffffffffffffffffffffffff1673ffffffffffffffffffffffffffffffffffffffff16631d7450ac6040518163ffffffff1660e01b8152600401600060405180830381865afa1580156103de573d6000803e3d6000fd5b505050506040513d6000823e3d601f19601f8201168201806040525081019061040791906114bd565b945050505091508482036105315760008190506000848154811061042e5761042d6113f4565b5b9060005260206000200160009054906101000a900473ffffffffffffffffffffffffffffffffffffffff1673ffffffffffffffffffffffffffffffffffffffff1663a6f9dae1866040518263ffffffff1660e01b81526004016104919190611336565b600060405180830381600087803b1580156104ab57600080fd5b505af11580156104bf573d6000803e3d6000fd5b505050508473ffffffffffffffffffffffffffffffffffffffff168173ffffffffffffffffffffffffffffffffffffffff167f80d70e2f1a3ad68b38c069f4d530fc790f30cb753a1be3c63688721b707f242e886040516105209190610d4d565b60405180910390a35050505061057c565b50508080600101915050610345565b506040517f08c379a0000000000000000000000000000000000000000000000000000000008152600401610573906115bc565b60405180910390fd5b5050565b60015481565b60036020528060005260406000206000915054906101000a900460ff1681565b600260009054906101000a900473ffffffffffffffffffffffffffffffffffffffff1673ffffffffffffffffffffffffffffffffffffffff163373ffffffffffffffffffffffffffffffffffffffff1614610636576040517f08c379a000000000000000000000000000000000000000000000000000000000815260040161062d9061164e565b60405180910390fd5b6001600360008373ffffffffffffffffffffffffffffffffffffffff1673ffffffffffffffffffffffffffffffffffffffff16815260200190815260200160002060006101000a81548160ff02191690831515021790555050565b600360003373ffffffffffffffffffffffffffffffffffffffff1673ffffffffffffffffffffffffffffffffffffffff16815260200190815260200160002060009054906101000a900460ff1661071d576040517f08c379a0000000000000000000000000000000000000000000000000000000008152600401610714906116e0565b60405180910390fd5b60006001548585858560405161073290610be6565b610740959493929190611739565b604051809103906000f08015801561075c573d6000803e3d6000fd5b5090506000819080600181540180825580915050600190039060005260206000200160009091909190916101000a81548173ffffffffffffffffffffffffffffffffffffffff021916908373ffffffffffffffffffffffffffffffffffffffff1602179055508173ffffffffffffffffffffffffffffffffffffffff167f7c2386ddb9cf4c20a2495b0c65f9ecc27d38c5af2b88587642852b689c64ebc5600154878787604051610810949392919061179a565b60405180910390a2600d6001600082825461082b919061181c565b925050819055505050505050565b606080606080606060008080549050905060008167ffffffffffffffff81111561086657610865610d83565b5b6040519080825280602002602001820160405280156108945781602001602082028036833780820191505090505b50905060008267ffffffffffffffff8111156108b3576108b2610d83565b5b6040519080825280602002602001820160405280156108e657816020015b60608152602001906001900390816108d15790505b50905060008367ffffffffffffffff81111561090557610904610d83565b5b60405190808252806020026020018201604052801561093857816020015b60608152602001906001900390816109235790505b50905060008467ffffffffffffffff81111561095757610956610d83565b5b6040519080825280602002602001820160405280156109855781602001602082028036833780820191505090505b50905060008567ffffffffffffffff8111156109a4576109a3610d83565b5b6040519080825280602002602001820160405280156109d25781602001602082028036833780820191505090505b50905060005b86811015610b6457600081815481106109f4576109f36113f4565b5b9060005260206000200160009054906101000a900473ffffffffffffffffffffffffffffffffffffffff1673ffffffffffffffffffffffffffffffffffffffff16631d7450ac6040518163ffffffff1660e01b8152600401600060405180830381865afa158015610a69573d6000803e3d6000fd5b505050506040513d6000823e3d601f19601f82011682018060405250810190610a9291906114bd565b8a8681518110610aa557610aa46113f4565b5b602002602001018a8781518110610abf57610abe6113f4565b5b602002602001018a8881518110610ad957610ad86113f4565b5b602002602001018a8981518110610af357610af26113f4565b5b602002602001018a8a81518110610b0d57610b0c6113f4565b5b602002602001018573ffffffffffffffffffffffffffffffffffffffff1673ffffffffffffffffffffffffffffffffffffffff168152508581525085905285905285815250505050505080806001019150506109d8565b5084848484849a509a509a509a509a505050505050509091929394565b60008181548110610b9157600080fd5b906000526020600020016000915054906101000a900473ffffffffffffffffffffffffffffffffffffffff1681565b600260009054906101000a900473ffffffffffffffffffffffffffffffffffffffff1681565b610d528061185183390190565b6000604051905090565b600080fd5b600080fd5b600073ffffffffffffffffffffffffffffffffffffffff82169050919050565b6000610c3282610c07565b9050919050565b610c4281610c27565b8114610c4d57600080fd5b50565b600081359050610c5f81610c39565b92915050565b600060208284031215610c7b57610c7a610bfd565b5b6000610c8984828501610c50565b91505092915050565b60008115159050919050565b610ca781610c92565b82525050565b6000602082019050610cc26000830184610c9e565b92915050565b6000819050919050565b610cdb81610cc8565b8114610ce657600080fd5b50565b600081359050610cf881610cd2565b92915050565b60008060408385031215610d1557610d14610bfd565b5b6000610d2385828601610ce9565b9250506020610d3485828601610c50565b9150509250929050565b610d4781610cc8565b82525050565b6000602082019050610d626000830184610d3e565b92915050565b600080fd5b600080fd5b6000601f19601f8301169050919050565b7f4e487b7100000000000000000000000000000000000000000000000000000000600052604160045260246000fd5b610dbb82610d72565b810181811067ffffffffffffffff82111715610dda57610dd9610d83565b5b80604052505050565b6000610ded610bf3565b9050610df98282610db2565b919050565b600067ffffffffffffffff821115610e1957610e18610d83565b5b610e2282610d72565b9050602081019050919050565b82818337600083830152505050565b6000610e51610e4c84610dfe565b610de3565b905082815260208101848484011115610e6d57610e6c610d6d565b5b610e78848285610e2f565b509392505050565b600082601f830112610e9557610e94610d68565b5b8135610ea5848260208601610e3e565b91505092915050565b60008060008060808587031215610ec857610ec7610bfd565b5b600085013567ffffffffffffffff811115610ee657610ee5610c02565b5b610ef287828801610e80565b945050602085013567ffffffffffffffff811115610f1357610f12610c02565b5b610f1f87828801610e80565b9350506040610f3087828801610ce9565b9250506060610f4187828801610c50565b91505092959194509250565b600081519050919050565b600082825260208201905092915050565b6000819050602082019050919050565b610f8281610cc8565b82525050565b6000610f948383610f79565b60208301905092915050565b6000602082019050919050565b6000610fb882610f4d565b610fc28185610f58565b9350610fcd83610f69565b8060005b83811015610ffe578151610fe58882610f88565b9750610ff083610fa0565b925050600181019050610fd1565b5085935050505092915050565b600081519050919050565b600082825260208201905092915050565b6000819050602082019050919050565b600081519050919050565b600082825260208201905092915050565b60005b83811015611071578082015181840152602081019050611056565b60008484015250505050565b600061108882611037565b6110928185611042565b93506110a2818560208601611053565b6110ab81610d72565b840191505092915050565b60006110c2838361107d565b905092915050565b6000602082019050919050565b60006110e28261100b565b6110ec8185611016565b9350836020820285016110fe85611027565b8060005b8581101561113a578484038952815161111b85826110b6565b9450611126836110ca565b925060208a01995050600181019050611102565b50829750879550505050505092915050565b600081519050919050565b600082825260208201905092915050565b6000819050602082019050919050565b61118181610c27565b82525050565b60006111938383611178565b60208301905092915050565b6000602082019050919050565b60006111b78261114c565b6111c18185611157565b93506111cc83611168565b8060005b838110156111fd5781516111e48882611187565b97506111ef8361119f565b9250506001810190506111d0565b5085935050505092915050565b600060a08201905081810360008301526112248188610fad565b9050818103602083015261123881876110d7565b9050818103604083015261124c81866110d7565b905081810360608301526112608185610fad565b9050818103608083015261127481846111ac565b90509695505050505050565b60006020828403121561129657611295610bfd565b5b60006112a484828501610ce9565b91505092915050565b6000819050919050565b60006112d26112cd6112c884610c07565b6112ad565b610c07565b9050919050565b60006112e4826112b7565b9050919050565b60006112f6826112d9565b9050919050565b611306816112eb565b82525050565b600060208201905061132160008301846112fd565b92915050565b61133081610c27565b82525050565b600060208201905061134b6000830184611327565b92915050565b600082825260208201905092915050565b7f4f6e6c792074686520636f6e7472616374206f776e65722063616e2072656d6f60008201527f76652061646d696e730000000000000000000000000000000000000000000000602082015250565b60006113be602983611351565b91506113c982611362565b604082019050919050565b600060208201905081810360008301526113ed816113b1565b9050919050565b7f4e487b7100000000000000000000000000000000000000000000000000000000600052603260045260246000fd5b60008151905061143281610cd2565b92915050565b600061144b61144684610dfe565b610de3565b90508281526020810184848401111561146757611466610d6d565b5b611472848285611053565b509392505050565b600082601f83011261148f5761148e610d68565b5b815161149f848260208601611438565b91505092915050565b6000815190506114b781610c39565b92915050565b600080600080600060a086880312156114d9576114d8610bfd565b5b60006114e788828901611423565b955050602086015167ffffffffffffffff81111561150857611507610c02565b5b6115148882890161147a565b945050604086015167ffffffffffffffff81111561153557611534610c02565b5b6115418882890161147a565b935050606061155288828901611423565b9250506080611563888289016114a8565b9150509295509295909350565b7f50726f7065727479206e6f7420666f756e640000000000000000000000000000600082015250565b60006115a6601283611351565b91506115b182611570565b602082019050919050565b600060208201905081810360008301526115d581611599565b9050919050565b7f4f6e6c792074686520636f6e7472616374206f776e65722063616e206164642060008201527f61646d696e730000000000000000000000000000000000000000000000000000602082015250565b6000611638602683611351565b9150611643826115dc565b604082019050919050565b600060208201905081810360008301526116678161162b565b9050919050565b7f4f6e6c7920616e2061646d696e2063616e20706572666f726d2074686973206160008201527f6374696f6e000000000000000000000000000000000000000000000000000000602082015250565b60006116ca602583611351565b91506116d58261166e565b604082019050919050565b600060208201905081810360008301526116f9816116bd565b9050919050565b600061170b82611037565b6117158185611351565b9350611725818560208601611053565b61172e81610d72565b840191505092915050565b600060a08201905061174e6000830188610d3e565b81810360208301526117608187611700565b905081810360408301526117748186611700565b90506117836060830185610d3e565b6117906080830184611327565b9695505050505050565b60006080820190506117af6000830187610d3e565b81810360208301526117c18186611700565b905081810360408301526117d58185611700565b90506117e46060830184610d3e565b95945050505050565b7f4e487b7100000000000000000000000000000000000000000000000000000000600052601160045260246000fd5b600061182782610cc8565b915061183283610cc8565b925082820190508082111561184a576118496117ed565b5b9291505056fe608060405234801561001057600080fd5b50604051610d52380380610d528339818101604052810190610032919061030d565b6040518060a001604052808681526020018581526020018481526020018381526020018273ffffffffffffffffffffffffffffffffffffffff168152506000808201518160000155602082015181600101908161008f91906105d7565b5060408201518160020190816100a591906105d7565b506060820151816003015560808201518160040160006101000a81548173ffffffffffffffffffffffffffffffffffffffff021916908373ffffffffffffffffffffffffffffffffffffffff16021790555090505050505050506106a9565b6000604051905090565b600080fd5b600080fd5b6000819050919050565b61012b81610118565b811461013657600080fd5b50565b60008151905061014881610122565b92915050565b600080fd5b600080fd5b6000601f19601f8301169050919050565b7f4e487b7100000000000000000000000000000000000000000000000000000000600052604160045260246000fd5b6101a182610158565b810181811067ffffffffffffffff821117156101c0576101bf610169565b5b80604052505050565b60006101d3610104565b90506101df8282610198565b919050565b600067ffffffffffffffff8211156101ff576101fe610169565b5b61020882610158565b9050602081019050919050565b60005b83811015610233578082015181840152602081019050610218565b60008484015250505050565b600061025261024d846101e4565b6101c9565b90508281526020810184848401111561026e5761026d610153565b5b610279848285610215565b509392505050565b600082601f8301126102965761029561014e565b5b81516102a684826020860161023f565b91505092915050565b600073ffffffffffffffffffffffffffffffffffffffff82169050919050565b60006102da826102af565b9050919050565b6102ea816102cf565b81146102f557600080fd5b50565b600081519050610307816102e1565b92915050565b600080600080600060a086880312156103295761032861010e565b5b600061033788828901610139565b955050602086015167ffffffffffffffff81111561035857610357610113565b5b61036488828901610281565b945050604086015167ffffffffffffffff81111561038557610384610113565b5b61039188828901610281565b93505060606103a288828901610139565b92505060806103b3888289016102f8565b9150509295509295909350565b600081519050919050565b7f4e487b7100000000000000000000000000000000000000000000000000000000600052602260045260246000fd5b6000600282049050600182168061041257607f821691505b602082108103610425576104246103cb565b5b50919050565b60008190508160005260206000209050919050565b60006020601f8301049050919050565b600082821b905092915050565b60006008830261048d7fffffffffffffffffffffffffffffffffffffffffffffffffffffffffffffffff82610450565b6104978683610450565b95508019841693508086168417925050509392505050565b6000819050919050565b60006104d46104cf6104ca84610118565b6104af565b610118565b9050919050565b6000819050919050565b6104ee836104b9565b6105026104fa826104db565b84845461045d565b825550505050565b600090565b61051761050a565b6105228184846104e5565b505050565b5b818110156105465761053b60008261050f565b600181019050610528565b5050565b601f82111561058b5761055c8161042b565b61056584610440565b81016020851015610574578190505b61058861058085610440565b830182610527565b50505b505050565b600082821c905092915050565b60006105ae60001984600802610590565b1980831691505092915050565b60006105c7838361059d565b9150826002028217905092915050565b6105e0826103c0565b67ffffffffffffffff8111156105f9576105f8610169565b5b61060382546103fa565b61060e82828561054a565b600060209050601f831160018114610641576000841561062f578287015190505b61063985826105bb565b8655506106a1565b601f19841661064f8661042b565b60005b8281101561067757848901518255600182019150602085019450602081019050610652565b868310156106945784890151610690601f89168261059d565b8355505b6001600288020188555050505b505050505050565b61069a806106b86000396000f3fe608060405234801561001057600080fd5b50600436106100415760003560e01c806314d57e8b146100465780631d7450ac14610068578063a6f9dae11461008a575b600080fd5b61004e6100a6565b60405161005f95949392919061052a565b60405180910390f35b6100706101fa565b60405161008195949392919061052a565b60405180910390f35b6100a4600480360381019061009f91906105bc565b610366565b005b60008060000154908060010180546100bd90610618565b80601f01602080910402602001604051908101604052809291908181526020018280546100e990610618565b80156101365780601f1061010b57610100808354040283529160200191610136565b820191906000526020600020905b81548152906001019060200180831161011957829003601f168201915b50505050509080600201805461014b90610618565b80601f016020809104026020016040519081016040528092919081815260200182805461017790610618565b80156101c45780601f10610199576101008083540402835291602001916101c4565b820191906000526020600020905b8154815290600101906020018083116101a757829003601f168201915b5050505050908060030154908060040160009054906101000a900473ffffffffffffffffffffffffffffffffffffffff16905085565b6000606080600080600080015460006001016000600201600060030154600060040160009054906101000a900473ffffffffffffffffffffffffffffffffffffffff1683805461024990610618565b80601f016020809104026020016040519081016040528092919081815260200182805461027590610618565b80156102c25780601f10610297576101008083540402835291602001916102c2565b820191906000526020600020905b8154815290600101906020018083116102a557829003601f168201915b505050505093508280546102d590610618565b80601f016020809104026020016040519081016040528092919081815260200182805461030190610618565b801561034e5780601f106103235761010080835404028352916020019161034e565b820191906000526020600020905b81548152906001019060200180831161033157829003601f168201915b50505050509250945094509450945094509091929394565b60008060040160009054906101000a900473ffffffffffffffffffffffffffffffffffffffff16905081600060040160006101000a81548173ffffffffffffffffffffffffffffffffffffffff021916908373ffffffffffffffffffffffffffffffffffffffff1602179055508173ffffffffffffffffffffffffffffffffffffffff168173ffffffffffffffffffffffffffffffffffffffff167f079a159bc2c4ed6aaee92c293d83b6527a380c127aca07f41d3ab4c590957f5660008001546040516104349190610649565b60405180910390a35050565b6000819050919050565b61045381610440565b82525050565b600081519050919050565b600082825260208201905092915050565b60005b83811015610493578082015181840152602081019050610478565b60008484015250505050565b6000601f19601f8301169050919050565b60006104bb82610459565b6104c58185610464565b93506104d5818560208601610475565b6104de8161049f565b840191505092915050565b600073ffffffffffffffffffffffffffffffffffffffff82169050919050565b6000610514826104e9565b9050919050565b61052481610509565b82525050565b600060a08201905061053f600083018861044a565b818103602083015261055181876104b0565b9050818103604083015261056581866104b0565b9050610574606083018561044a565b610581608083018461051b565b9695505050505050565b600080fd5b61059981610509565b81146105a457600080fd5b50565b6000813590506105b681610590565b92915050565b6000602082840312156105d2576105d161058b565b5b60006105e0848285016105a7565b91505092915050565b7f4e487b7100000000000000000000000000000000000000000000000000000000600052602260045260246000fd5b6000600282049050600182168061063057607f821691505b602082108103610643576106426105e9565b5b50919050565b600060208201905061065e600083018461044a565b9291505056fea2646970667358221220be7e626ab192a2d628f69ea008b7f13b285723a4fc686d3bf0f5155ac87b424164736f6c634300081c0033a2646970667358221220a93260a92e9f9289d7950bcb3d0c8eaf84f28c6661b9dbe7332ccb24805443ce64736f6c634300081c0033",
  "linkReferences": {},
  "deployedLinkReferences": {}
}