{
  "_format": "hh-sol-artifact-1",
  "contractName": "Property",
  "sourceName": "contracts/Token.sol",
  "abi": [
    {
      "inputs": [
        {
          "internalType": "uint256",
          "name": "id",
          "type": "uint256"
        },
        {
          "internalType": "string",
          "name": "category",
          "type": "string"
        },
        {
          "internalType": "string",
          "name": "location",
          "type": "string"
        },
        {
          "internalType": "uint256",
          "name": "area",
          "type": "uint256"
        },
        {
          "internalType": "address",
          "name": "owner",
          "type": "address"
        }
      ],
      "stateMutability": "nonpayable",
      "type": "constructor"
    },
    {
      "anonymous": false,
      "inputs": [
        {
          "indexed": false,
          "internalType": "uint256",
          "name": "id",
          "type": "uint256"
        },
        {
          "indexed": true,
          "internalType": "address",
          "name": "previousOwner",
          "type": "address"
        },
        {
          "indexed": true,
          "internalType": "address",
          "name": "newOwner",
          "type": "address"
        }
      ],
      "name": "OwnerChanged",
      "type": "event"
    },
    {
      "inputs": [
        {
          "internalType": "address",
          "name": "newOwner",
          "type": "address"
        }
      ],
      "name": "changeOwner",
      "outputs": [],
      "stateMutability": "nonpayable",
      "type": "function"
    },
    {
      "inputs": [],
      "name": "getPropertyData",
      "outputs": [
        {
          "internalType": "uint256",
          "name": "",
          "type": "uint256"
        },
        {
          "internalType": "string",
          "name": "",
          "type": "string"
        },
        {
          "internalType": "string",
          "name": "",
          "type": "string"
        },
        {
          "internalType": "uint256",
          "name": "",
          "type": "uint256"
        },
        {
          "internalType": "address",
          "name": "",
          "type": "address"
        }
      ],
      "stateMutability": "view",
      "type": "function"
    },
    {
      "inputs": [],
      "name": "propertyData",
      "outputs": [
        {
          "internalType": "uint256",
          "name": "id",
          "type": "uint256"
        },
        {
          "internalType": "string",
          "name": "category",
          "type": "string"
        },
        {
          "internalType": "string",
          "name": "location",
          "type": "string"
        },
        {
          "internalType": "uint256",
          "name": "area",
          "type": "uint256"
        },
        {
          "internalType": "address",
          "name": "owner",
          "type": "address"
        }
      ],
      "stateMutability": "view",
      "type": "function"
    }
  ],
  "bytecode": "0x608060405234801561001057600080fd5b50604051610e77380380610e778339818101604052810190610032919061030d565b6040518060a001604052808681526020018581526020018481526020018381526020018273ffffffffffffffffffffffffffffffffffffffff168152506000808201518160000155602082015181600101908161008f91906105d7565b5060408201518160020190816100a591906105d7565b506060820151816003015560808201518160040160006101000a81548173ffffffffffffffffffffffffffffffffffffffff021916908373ffffffffffffffffffffffffffffffffffffffff16021790555090505050505050506106a9565b6000604051905090565b600080fd5b600080fd5b6000819050919050565b61012b81610118565b811461013657600080fd5b50565b60008151905061014881610122565b92915050565b600080fd5b600080fd5b6000601f19601f8301169050919050565b7f4e487b7100000000000000000000000000000000000000000000000000000000600052604160045260246000fd5b6101a182610158565b810181811067ffffffffffffffff821117156101c0576101bf610169565b5b80604052505050565b60006101d3610104565b90506101df8282610198565b919050565b600067ffffffffffffffff8211156101ff576101fe610169565b5b61020882610158565b9050602081019050919050565b60005b83811015610233578082015181840152602081019050610218565b60008484015250505050565b600061025261024d846101e4565b6101c9565b90508281526020810184848401111561026e5761026d610153565b5b610279848285610215565b509392505050565b600082601f8301126102965761029561014e565b5b81516102a684826020860161023f565b91505092915050565b600073ffffffffffffffffffffffffffffffffffffffff82169050919050565b60006102da826102af565b9050919050565b6102ea816102cf565b81146102f557600080fd5b50565b600081519050610307816102e1565b92915050565b600080600080600060a086880312156103295761032861010e565b5b600061033788828901610139565b955050602086015167ffffffffffffffff81111561035857610357610113565b5b61036488828901610281565b945050604086015167ffffffffffffffff81111561038557610384610113565b5b61039188828901610281565b93505060606103a288828901610139565b92505060806103b3888289016102f8565b9150509295509295909350565b600081519050919050565b7f4e487b7100000000000000000000000000000000000000000000000000000000600052602260045260246000fd5b6000600282049050600182168061041257607f821691505b602082108103610425576104246103cb565b5b50919050565b60008190508160005260206000209050919050565b60006020601f8301049050919050565b600082821b905092915050565b60006008830261048d7fffffffffffffffffffffffffffffffffffffffffffffffffffffffffffffffff82610450565b6104978683610450565b95508019841693508086168417925050509392505050565b6000819050919050565b60006104d46104cf6104ca84610118565b6104af565b610118565b9050919050565b6000819050919050565b6104ee836104b9565b6105026104fa826104db565b84845461045d565b825550505050565b600090565b61051761050a565b6105228184846104e5565b505050565b5b818110156105465761053b60008261050f565b600181019050610528565b5050565b601f82111561058b5761055c8161042b565b61056584610440565b81016020851015610574578190505b61058861058085610440565b830182610527565b50505b505050565b600082821c905092915050565b60006105ae60001984600802610590565b1980831691505092915050565b60006105c7838361059d565b9150826002028217905092915050565b6105e0826103c0565b67ffffffffffffffff8111156105f9576105f8610169565b5b61060382546103fa565b61060e82828561054a565b600060209050601f831160018114610641576000841561062f578287015190505b61063985826105bb565b8655506106a1565b601f19841661064f8661042b565b60005b8281101561067757848901518255600182019150602085019450602081019050610652565b868310156106945784890151610690601f89168261059d565b8355505b6001600288020188555050505b505050505050565b6107bf806106b86000396000f3fe608060405234801561001057600080fd5b50600436106100415760003560e01c806314d57e8b146100465780631d7450ac14610068578063a6f9dae11461008a575b600080fd5b61004e6100a6565b60405161005f9594939291906105bd565b60405180910390f35b6100706101fa565b6040516100819594939291906105bd565b60405180910390f35b6100a4600480360381019061009f919061064f565b610366565b005b60008060000154908060010180546100bd906106ab565b80601f01602080910402602001604051908101604052809291908181526020018280546100e9906106ab565b80156101365780601f1061010b57610100808354040283529160200191610136565b820191906000526020600020905b81548152906001019060200180831161011957829003601f168201915b50505050509080600201805461014b906106ab565b80601f0160208091040260200160405190810160405280929190818152602001828054610177906106ab565b80156101c45780601f10610199576101008083540402835291602001916101c4565b820191906000526020600020905b8154815290600101906020018083116101a757829003601f168201915b5050505050908060030154908060040160009054906101000a900473ffffffffffffffffffffffffffffffffffffffff16905085565b6000606080600080600080015460006001016000600201600060030154600060040160009054906101000a900473ffffffffffffffffffffffffffffffffffffffff16838054610249906106ab565b80601f0160208091040260200160405190810160405280929190818152602001828054610275906106ab565b80156102c25780601f10610297576101008083540402835291602001916102c2565b820191906000526020600020905b8154815290600101906020018083116102a557829003601f168201915b505050505093508280546102d5906106ab565b80601f0160208091040260200160405190810160405280929190818152602001828054610301906106ab565b801561034e5780601f106103235761010080835404028352916020019161034e565b820191906000526020600020905b81548152906001019060200180831161033157829003601f168201915b50505050509250945094509450945094509091929394565b600060040160009054906101000a900473ffffffffffffffffffffffffffffffffffffffff1673ffffffffffffffffffffffffffffffffffffffff163373ffffffffffffffffffffffffffffffffffffffff16146103f9576040517f08c379a00000000000000000000000000000000000000000000000000000000081526004016103f09061074e565b60405180910390fd5b60008060040160009054906101000a900473ffffffffffffffffffffffffffffffffffffffff16905081600060040160006101000a81548173ffffffffffffffffffffffffffffffffffffffff021916908373ffffffffffffffffffffffffffffffffffffffff1602179055508173ffffffffffffffffffffffffffffffffffffffff168173ffffffffffffffffffffffffffffffffffffffff167f079a159bc2c4ed6aaee92c293d83b6527a380c127aca07f41d3ab4c590957f5660008001546040516104c7919061076e565b60405180910390a35050565b6000819050919050565b6104e6816104d3565b82525050565b600081519050919050565b600082825260208201905092915050565b60005b8381101561052657808201518184015260208101905061050b565b60008484015250505050565b6000601f19601f8301169050919050565b600061054e826104ec565b61055881856104f7565b9350610568818560208601610508565b61057181610532565b840191505092915050565b600073ffffffffffffffffffffffffffffffffffffffff82169050919050565b60006105a78261057c565b9050919050565b6105b78161059c565b82525050565b600060a0820190506105d260008301886104dd565b81810360208301526105e48187610543565b905081810360408301526105f88186610543565b905061060760608301856104dd565b61061460808301846105ae565b9695505050505050565b600080fd5b61062c8161059c565b811461063757600080fd5b50565b60008135905061064981610623565b92915050565b6000602082840312156106655761066461061e565b5b60006106738482850161063a565b91505092915050565b7f4e487b7100000000000000000000000000000000000000000000000000000000600052602260045260246000fd5b600060028204905060018216806106c357607f821691505b6020821081036106d6576106d561067c565b5b50919050565b7f4f6e6c7920746865206f776e65722063616e206368616e676520746865206f7760008201527f6e65720000000000000000000000000000000000000000000000000000000000602082015250565b60006107386023836104f7565b9150610743826106dc565b604082019050919050565b600060208201905081810360008301526107678161072b565b9050919050565b600060208201905061078360008301846104dd565b9291505056fea26469706673582212203163113cbb89d4ff7f3c19326db130d47c3ffaf2ef587a71ca15476a70d68b6764736f6c634300081c0033",
  "linkReferences": {},
  "deployedLinkReferences": {}
}