{
  "_format": "hh-sol-artifact-1",
  "contractName": "Student",
  "sourceName": "contracts/Token.sol",
  "abi": [
    {
      "inputs": [
        {
          "internalType": "string",
          "name": "_codinome",
          "type": "string"
        },
        {
          "internalType": "uint256",
          "name": "_points",
          "type": "uint256"
        },
        {
          "internalType": "address",
          "name": "_addr",
          "type": "address"
        }
      ],
      "stateMutability": "nonpayable",
      "type": "constructor"
    },
    {
      "inputs": [],
      "name": "student",
      "outputs": [
        {
          "internalType": "string",
          "name": "codinome",
          "type": "string"
        },
        {
          "internalType": "uint256",
          "name": "points",
          "type": "uint256"
        },
        {
          "internalType": "address",
          "name": "addr",
          "type": "address"
        }
      ],
      "stateMutability": "view",
      "type": "function"
    }
  ],
  "bytecode": "0x608060405234801561001057600080fd5b50604051610914380380610914833981810160405281019061003291906102df565b60405180606001604052808481526020018381526020018273ffffffffffffffffffffffffffffffffffffffff168152506000808201518160000190816100799190610565565b506020820151816001015560408201518160020160006101000a81548173ffffffffffffffffffffffffffffffffffffffff021916908373ffffffffffffffffffffffffffffffffffffffff160217905550905050505050610637565b6000604051905090565b600080fd5b600080fd5b600080fd5b600080fd5b6000601f19601f8301169050919050565b7f4e487b7100000000000000000000000000000000000000000000000000000000600052604160045260246000fd5b61013d826100f4565b810181811067ffffffffffffffff8211171561015c5761015b610105565b5b80604052505050565b600061016f6100d6565b905061017b8282610134565b919050565b600067ffffffffffffffff82111561019b5761019a610105565b5b6101a4826100f4565b9050602081019050919050565b60005b838110156101cf5780820151818401526020810190506101b4565b60008484015250505050565b60006101ee6101e984610180565b610165565b90508281526020810184848401111561020a576102096100ef565b5b6102158482856101b1565b509392505050565b600082601f830112610232576102316100ea565b5b81516102428482602086016101db565b91505092915050565b6000819050919050565b61025e8161024b565b811461026957600080fd5b50565b60008151905061027b81610255565b92915050565b600073ffffffffffffffffffffffffffffffffffffffff82169050919050565b60006102ac82610281565b9050919050565b6102bc816102a1565b81146102c757600080fd5b50565b6000815190506102d9816102b3565b92915050565b6000806000606084860312156102f8576102f76100e0565b5b600084015167ffffffffffffffff811115610316576103156100e5565b5b6103228682870161021d565b93505060206103338682870161026c565b9250506040610344868287016102ca565b9150509250925092565b600081519050919050565b7f4e487b7100000000000000000000000000000000000000000000000000000000600052602260045260246000fd5b600060028204905060018216806103a057607f821691505b6020821081036103b3576103b2610359565b5b50919050565b60008190508160005260206000209050919050565b60006020601f8301049050919050565b600082821b905092915050565b60006008830261041b7fffffffffffffffffffffffffffffffffffffffffffffffffffffffffffffffff826103de565b61042586836103de565b95508019841693508086168417925050509392505050565b6000819050919050565b600061046261045d6104588461024b565b61043d565b61024b565b9050919050565b6000819050919050565b61047c83610447565b61049061048882610469565b8484546103eb565b825550505050565b600090565b6104a5610498565b6104b0818484610473565b505050565b5b818110156104d4576104c960008261049d565b6001810190506104b6565b5050565b601f821115610519576104ea816103b9565b6104f3846103ce565b81016020851015610502578190505b61051661050e856103ce565b8301826104b5565b50505b505050565b600082821c905092915050565b600061053c6000198460080261051e565b1980831691505092915050565b6000610555838361052b565b9150826002028217905092915050565b61056e8261034e565b67ffffffffffffffff81111561058757610586610105565b5b6105918254610388565b61059c8282856104d8565b600060209050601f8311600181146105cf57600084156105bd578287015190505b6105c78582610549565b86555061062f565b601f1984166105dd866103b9565b60005b82811015610605578489015182556001820191506020850194506020810190506105e0565b86831015610622578489015161061e601f89168261052b565b8355505b6001600288020188555050505b505050505050565b6102ce806106466000396000f3fe608060405234801561001057600080fd5b506004361061002b5760003560e01c8063699450e814610030575b600080fd5b610038610050565b604051610047939291906101fa565b60405180910390f35b600080600001805461006190610267565b80601f016020809104026020016040519081016040528092919081815260200182805461008d90610267565b80156100da5780601f106100af576101008083540402835291602001916100da565b820191906000526020600020905b8154815290600101906020018083116100bd57829003601f168201915b5050505050908060010154908060020160009054906101000a900473ffffffffffffffffffffffffffffffffffffffff16905083565b600081519050919050565b600082825260208201905092915050565b60005b8381101561014a57808201518184015260208101905061012f565b60008484015250505050565b6000601f19601f8301169050919050565b600061017282610110565b61017c818561011b565b935061018c81856020860161012c565b61019581610156565b840191505092915050565b6000819050919050565b6101b3816101a0565b82525050565b600073ffffffffffffffffffffffffffffffffffffffff82169050919050565b60006101e4826101b9565b9050919050565b6101f4816101d9565b82525050565b600060608201905081810360008301526102148186610167565b905061022360208301856101aa565b61023060408301846101eb565b949350505050565b7f4e487b7100000000000000000000000000000000000000000000000000000000600052602260045260246000fd5b6000600282049050600182168061027f57607f821691505b60208210810361029257610291610238565b5b5091905056fea2646970667358221220b12bb8c6dc823ee5b5624424d337b23f150ba86fe3db94b645d9c4f06174a84b64736f6c634300081c0033",
  "linkReferences": {},
  "deployedLinkReferences": {}
}