{
  "_format": "hh-sol-artifact-1",
  "contractName": "Token",
  "sourceName": "contracts/Token.sol",
  "abi": [
    {
      "inputs": [
        {
          "internalType": "string",
          "name": "_codinome",
          "type": "string"
        },
        {
          "internalType": "uint256",
          "name": "_points",
          "type": "uint256"
        },
        {
          "internalType": "address",
          "name": "_addr",
          "type": "address"
        }
      ],
      "name": "createStudent",
      "outputs": [],
      "stateMutability": "nonpayable",
      "type": "function"
    },
    {
      "inputs": [],
      "name": "getDeployedContracts",
      "outputs": [
        {
          "internalType": "string[]",
          "name": "",
          "type": "string[]"
        },
        {
          "internalType": "uint256[]",
          "name": "",
          "type": "uint256[]"
        },
        {
          "internalType": "address[]",
          "name": "",
          "type": "address[]"
        }
      ],
      "stateMutability": "view",
      "type": "function"
    },
    {
      "inputs": [
        {
          "internalType": "uint256",
          "name": "",
          "type": "uint256"
        }
      ],
      "name": "students",
      "outputs": [
        {
          "internalType": "contract Student",
          "name": "",
          "type": "address"
        }
      ],
      "stateMutability": "view",
      "type": "function"
    }
  ],
  "bytecode": "0x6080604052348015600f57600080fd5b5061162e8061001f6000396000f3fe608060405234801561001057600080fd5b50600436106100415760003560e01c806306ead22e146100465780638f026eb914610076578063aa9a068f14610092575b600080fd5b610060600480360381019061005b919061044c565b6100b2565b60405161006d91906104f8565b60405180910390f35b610090600480360381019061008b9190610697565b6100f1565b005b61009a610196565b6040516100a9939291906109c3565b60405180910390f35b600081815481106100c257600080fd5b906000526020600020016000915054906101000a900473ffffffffffffffffffffffffffffffffffffffff1681565b6000838383604051610102906103f5565b61010e93929190610a77565b604051809103906000f08015801561012a573d6000803e3d6000fd5b5090506000819080600181540180825580915050600190039060005260206000200160009091909190916101000a81548173ffffffffffffffffffffffffffffffffffffffff021916908373ffffffffffffffffffffffffffffffffffffffff16021790555050505050565b606080606060008080549050905060008167ffffffffffffffff8111156101c0576101bf61052e565b5b6040519080825280602002602001820160405280156101f357816020015b60608152602001906001900390816101de5790505b50905060008267ffffffffffffffff8111156102125761021161052e565b5b6040519080825280602002602001820160405280156102405781602001602082028036833780820191505090505b50905060008367ffffffffffffffff81111561025f5761025e61052e565b5b60405190808252806020026020018201604052801561028d5781602001602082028036833780820191505090505b50905060005b848110156103e257600081815481106102af576102ae610ab5565b5b9060005260206000200160009054906101000a900473ffffffffffffffffffffffffffffffffffffffff1673ffffffffffffffffffffffffffffffffffffffff16635fd7b16a6040518163ffffffff1660e01b8152600401600060405180830381865afa158015610324573d6000803e3d6000fd5b505050506040513d6000823e3d601f19601f8201168201806040525081019061034d9190610b7e565b8684815181106103605761035f610ab5565b5b6020026020010186858151811061037a57610379610ab5565b5b6020026020010186868151811061039457610393610ab5565b5b602002602001018373ffffffffffffffffffffffffffffffffffffffff1673ffffffffffffffffffffffffffffffffffffffff16815250838152508390525050508080600101915050610293565b5082828296509650965050505050909192565b610a0b80610bee83390190565b6000604051905090565b600080fd5b600080fd5b6000819050919050565b61042981610416565b811461043457600080fd5b50565b60008135905061044681610420565b92915050565b6000602082840312156104625761046161040c565b5b600061047084828501610437565b91505092915050565b600073ffffffffffffffffffffffffffffffffffffffff82169050919050565b6000819050919050565b60006104be6104b96104b484610479565b610499565b610479565b9050919050565b60006104d0826104a3565b9050919050565b60006104e2826104c5565b9050919050565b6104f2816104d7565b82525050565b600060208201905061050d60008301846104e9565b92915050565b600080fd5b600080fd5b6000601f19601f8301169050919050565b7f4e487b7100000000000000000000000000000000000000000000000000000000600052604160045260246000fd5b6105668261051d565b810181811067ffffffffffffffff821117156105855761058461052e565b5b80604052505050565b6000610598610402565b90506105a4828261055d565b919050565b600067ffffffffffffffff8211156105c4576105c361052e565b5b6105cd8261051d565b9050602081019050919050565b82818337600083830152505050565b60006105fc6105f7846105a9565b61058e565b90508281526020810184848401111561061857610617610518565b5b6106238482856105da565b509392505050565b600082601f8301126106405761063f610513565b5b81356106508482602086016105e9565b91505092915050565b600061066482610479565b9050919050565b61067481610659565b811461067f57600080fd5b50565b6000813590506106918161066b565b92915050565b6000806000606084860312156106b0576106af61040c565b5b600084013567ffffffffffffffff8111156106ce576106cd610411565b5b6106da8682870161062b565b93505060206106eb86828701610437565b92505060406106fc86828701610682565b9150509250925092565b600081519050919050565b600082825260208201905092915050565b6000819050602082019050919050565b600081519050919050565b600082825260208201905092915050565b60005b8381101561076c578082015181840152602081019050610751565b60008484015250505050565b600061078382610732565b61078d818561073d565b935061079d81856020860161074e565b6107a68161051d565b840191505092915050565b60006107bd8383610778565b905092915050565b6000602082019050919050565b60006107dd82610706565b6107e78185610711565b9350836020820285016107f985610722565b8060005b85811015610835578484038952815161081685826107b1565b9450610821836107c5565b925060208a019950506001810190506107fd565b50829750879550505050505092915050565b600081519050919050565b600082825260208201905092915050565b6000819050602082019050919050565b61087c81610416565b82525050565b600061088e8383610873565b60208301905092915050565b6000602082019050919050565b60006108b282610847565b6108bc8185610852565b93506108c783610863565b8060005b838110156108f85781516108df8882610882565b97506108ea8361089a565b9250506001810190506108cb565b5085935050505092915050565b600081519050919050565b600082825260208201905092915050565b6000819050602082019050919050565b61093a81610659565b82525050565b600061094c8383610931565b60208301905092915050565b6000602082019050919050565b600061097082610905565b61097a8185610910565b935061098583610921565b8060005b838110156109b657815161099d8882610940565b97506109a883610958565b925050600181019050610989565b5085935050505092915050565b600060608201905081810360008301526109dd81866107d2565b905081810360208301526109f181856108a7565b90508181036040830152610a058184610965565b9050949350505050565b600082825260208201905092915050565b6000610a2b82610732565b610a358185610a0f565b9350610a4581856020860161074e565b610a4e8161051d565b840191505092915050565b610a6281610416565b82525050565b610a7181610659565b82525050565b60006060820190508181036000830152610a918186610a20565b9050610aa06020830185610a59565b610aad6040830184610a68565b949350505050565b7f4e487b7100000000000000000000000000000000000000000000000000000000600052603260045260246000fd5b6000610af7610af2846105a9565b61058e565b905082815260208101848484011115610b1357610b12610518565b5b610b1e84828561074e565b509392505050565b600082601f830112610b3b57610b3a610513565b5b8151610b4b848260208601610ae4565b91505092915050565b600081519050610b6381610420565b92915050565b600081519050610b788161066b565b92915050565b600080600060608486031215610b9757610b9661040c565b5b600084015167ffffffffffffffff811115610bb557610bb4610411565b5b610bc186828701610b26565b9350506020610bd286828701610b54565b9250506040610be386828701610b69565b915050925092509256fe608060405234801561001057600080fd5b50604051610a0b380380610a0b833981810160405281019061003291906102df565b60405180606001604052808481526020018381526020018273ffffffffffffffffffffffffffffffffffffffff168152506000808201518160000190816100799190610565565b506020820151816001015560408201518160020160006101000a81548173ffffffffffffffffffffffffffffffffffffffff021916908373ffffffffffffffffffffffffffffffffffffffff160217905550905050505050610637565b6000604051905090565b600080fd5b600080fd5b600080fd5b600080fd5b6000601f19601f8301169050919050565b7f4e487b7100000000000000000000000000000000000000000000000000000000600052604160045260246000fd5b61013d826100f4565b810181811067ffffffffffffffff8211171561015c5761015b610105565b5b80604052505050565b600061016f6100d6565b905061017b8282610134565b919050565b600067ffffffffffffffff82111561019b5761019a610105565b5b6101a4826100f4565b9050602081019050919050565b60005b838110156101cf5780820151818401526020810190506101b4565b60008484015250505050565b60006101ee6101e984610180565b610165565b90508281526020810184848401111561020a576102096100ef565b5b6102158482856101b1565b509392505050565b600082601f830112610232576102316100ea565b5b81516102428482602086016101db565b91505092915050565b6000819050919050565b61025e8161024b565b811461026957600080fd5b50565b60008151905061027b81610255565b92915050565b600073ffffffffffffffffffffffffffffffffffffffff82169050919050565b60006102ac82610281565b9050919050565b6102bc816102a1565b81146102c757600080fd5b50565b6000815190506102d9816102b3565b92915050565b6000806000606084860312156102f8576102f76100e0565b5b600084015167ffffffffffffffff811115610316576103156100e5565b5b6103228682870161021d565b93505060206103338682870161026c565b9250506040610344868287016102ca565b9150509250925092565b600081519050919050565b7f4e487b7100000000000000000000000000000000000000000000000000000000600052602260045260246000fd5b600060028204905060018216806103a057607f821691505b6020821081036103b3576103b2610359565b5b50919050565b60008190508160005260206000209050919050565b60006020601f8301049050919050565b600082821b905092915050565b60006008830261041b7fffffffffffffffffffffffffffffffffffffffffffffffffffffffffffffffff826103de565b61042586836103de565b95508019841693508086168417925050509392505050565b6000819050919050565b600061046261045d6104588461024b565b61043d565b61024b565b9050919050565b6000819050919050565b61047c83610447565b61049061048882610469565b8484546103eb565b825550505050565b600090565b6104a5610498565b6104b0818484610473565b505050565b5b818110156104d4576104c960008261049d565b6001810190506104b6565b5050565b601f821115610519576104ea816103b9565b6104f3846103ce565b81016020851015610502578190505b61051661050e856103ce565b8301826104b5565b50505b505050565b600082821c905092915050565b600061053c6000198460080261051e565b1980831691505092915050565b6000610555838361052b565b9150826002028217905092915050565b61056e8261034e565b67ffffffffffffffff81111561058757610586610105565b5b6105918254610388565b61059c8282856104d8565b600060209050601f8311600181146105cf57600084156105bd578287015190505b6105c78582610549565b86555061062f565b601f1984166105dd866103b9565b60005b82811015610605578489015182556001820191506020850194506020810190506105e0565b86831015610622578489015161061e601f89168261052b565b8355505b6001600288020188555050505b505050505050565b6103c5806106466000396000f3fe608060405234801561001057600080fd5b50600436106100365760003560e01c80635fd7b16a1461003b578063699450e81461005b575b600080fd5b61004361007b565b604051610052939291906102f1565b60405180910390f35b610063610147565b604051610072939291906102f1565b60405180910390f35b606060008060008001600060010154600060020160009054906101000a900473ffffffffffffffffffffffffffffffffffffffff168280546100bc9061035e565b80601f01602080910402602001604051908101604052809291908181526020018280546100e89061035e565b80156101355780601f1061010a57610100808354040283529160200191610135565b820191906000526020600020905b81548152906001019060200180831161011857829003601f168201915b50505050509250925092509250909192565b60008060000180546101589061035e565b80601f01602080910402602001604051908101604052809291908181526020018280546101849061035e565b80156101d15780601f106101a6576101008083540402835291602001916101d1565b820191906000526020600020905b8154815290600101906020018083116101b457829003601f168201915b5050505050908060010154908060020160009054906101000a900473ffffffffffffffffffffffffffffffffffffffff16905083565b600081519050919050565b600082825260208201905092915050565b60005b83811015610241578082015181840152602081019050610226565b60008484015250505050565b6000601f19601f8301169050919050565b600061026982610207565b6102738185610212565b9350610283818560208601610223565b61028c8161024d565b840191505092915050565b6000819050919050565b6102aa81610297565b82525050565b600073ffffffffffffffffffffffffffffffffffffffff82169050919050565b60006102db826102b0565b9050919050565b6102eb816102d0565b82525050565b6000606082019050818103600083015261030b818661025e565b905061031a60208301856102a1565b61032760408301846102e2565b949350505050565b7f4e487b7100000000000000000000000000000000000000000000000000000000600052602260045260246000fd5b6000600282049050600182168061037657607f821691505b6020821081036103895761038861032f565b5b5091905056fea2646970667358221220c76446057fa87bdd6d03d76afbb4a35835e9cf3c375cce18f2be891977e6f92664736f6c634300081c0033a26469706673582212206d0be7cf1092b7a4dba321deec299e14b301e0bbc3ee121b7b142edff691902164736f6c634300081c0033",
  "linkReferences": {},
  "deployedLinkReferences": {}
}